:030000000205C72F
:0C05C700787FE4F6D8FD75815902060E1D
:03001B00020908CF
:10090800C0E0C0F0C083C082C0D075D000C000C0B5
:1009180001C002C003C004C005C006C007120BB561
:10092800D007D006D005D004D003D002D001D00023
:0B093800D0D0D082D083D0F0D0E032CD
:0B0B9C00120B5B1207B2120A6780F810
:1006530008330000000000000000013000013100F9
:0306630001320061
:10086D0074332530F8E66013AF300530A8077401F6
:10087D00088002C333D8FC42328012AF300530A855
:10088D00077401088002C333D8FCF45232E530C33B
:10089D0094084003E4F530E531653260127F0412AF
:0F08AD000B69E532F4F580E4FF120B69853231F7
:0108BC002219
:0C0B8400A203E433FE74332FF8A606220F
:1009A6003F065B4F666D7D077F6F777C395E797199
:1009B6000040761E7038375C733E783D6750376E60
:0B09C600BF86DBCFE6EDFD87FFEF46AC
:0D0666000846101010101010101001450073
:070BA70074462FF8A6052299
:1008BD007580FF7F07120B69E4FF120B69AF45A826
:1008CD00077401088002C333D8FCF5807F06120B34
:1008DD0069E4FF120B69AF45054574462FF8E690A4
:1008ED0009A693F4F5807F07120B69E4FF120B69DB
:0A08FD00E545C394084003E4F54507
:0109070022CD
:100AD9008F468D478B4885274985294A852B4B8524
:060AE9002D4C852F4D226B
:0F067300011EC8011DC8011A00011B00011C0057
:10031C007523FF7524C975B00FC2C2C2C4A2C292A4
:10032C00B6A2C492B7E5B0540FF523E51A146025B4
:10033C0014700302042B14700302045F2403600383
:10034C00020480E523640F6006751A0102048075AF
:10035C001DC8020480E523B40F06E4F51A020480DC
:10036C00E52344F0F5B0D2C2D2C4A2C292B6A2C464
:10037C0092B785B023E5231205A103CC7703D17B7B
:10038C0003D67D03DB7E03E0B703E5BB03EABD03C5
:10039C00EFBE03F4D703F9DB03FEDD0403DE040830
:1003AC00E7040DEB0412ED0417EE03C6F703C8FBCC
:1003BC0003CAFD03DBFE0000041C80048007800AD6
:1003CC00751C048052751C05804D751C0680487583
:1003DC001C078043751C08803E751C098039751CF0
:1003EC000A8034751C0B802F751C0C802A751C0D13
:1003FC008025751C0E8020751C0F801B751C1080B1
:10040C0016751C118011751C12800C751C1380073D
:10041C00E4F51A751CC922851C1D751A02805575C8
:10042C00B00FC2C2C2C4A2C292B6A2C492B7E5B007
:10043C00540FF523640F6011051BE51BD394464044
:10044C0033E4F51B751A03802BE4F51BF51A851C98
:10045C0024802175B00FC2C2C2C4A2C292B6A2C47B
:10046C0092B7E5B0540FF523B40F09E4F51AE51C67
:0D047C002464F524E52464C9600385241E72
:010489002250
:030BBA00AF1D224A
:100B1800C203E51EB50709E4B50605D203751EC96B
:020B2800A20326
:010B2A0022A8
:0706820002560000015500C3
:0C0B9000EF60047F0180027F008F56227E
:1009D100E4F523E5566003432310E5576003432301
:1009E10040E555652360107F05120B69852380E47E
:0709F100FF120B698523557D
:0109F80022DC
:0E0B4D0080828486888A8C81838587898B8D3F
:0E0689000342000000073B50592309040325DB
:100B2B00E4FEC297EF1392A3EFC313FFD2970EBE4F
:020B3B0008F0C0
:010B3D002295
:100B0400C29300C29700D29300120B2BAF05120BB5
:040B14002BC293223B
:10094300E4FDC29300C29700D29300120B2BE4FF85
:10095300C297EDC313FD30A303430580D2970FBFA6
:1009630008EEC29300C29700D29700C2A300D2A39D
:0309730000AF05CD
:01097600225E
:040003001204A3FF41
:10000700EF75F00A84C454F0FEEF75F00A84EE250C
:03001700F0FF22D5
:0F0B3E00EFC4540F75F00AA4FEEF540F2EFF22E0
:070BAE00C293C297C2A3220B
:100811009000061200038F219000051200038F2221
:100821009000041200038F239000021200038F2412
:100831009000011200038F259000031200038F2600
:1008410012048AFF1200078F27E4FD7F8E120B042A
:10085100E4FCEC900B4D93FF74212CF8E6FD120B98
:0C086100040CBC07ED7D807F8E020B04B0
:1006D000E4FCEC900B5493FF12094374212CF8A610
:1006E000070CBC07EDE521547FFF120B3E9000067E
:1006F000EF1204E2E522547FFF120B3E900005EF5B
:100700001204E2E523543FFF120B3E900004EF1267
:1007100004E2E524543FFF120B3E900002EF120466
:10072000E2E525541FFF120B3E900001EF1204E298
:10073000E5265407FF120B3E900003EF1204E2AFD0
:0807400027120B3EEF0204D06A
:040ABF007F057E0031
:100AC300EF1FAA0670011E4A600BE4FDEDC3940CF0
:050AD30050EE0D80F75C
:010AD80022FB
:020A8600A907BE
:100A8800E4FBC294E9139294120ABFD294E9C31307
:0C0A9800F90BBB08ED7F057E00020AC3CD
:100AA400E4FCFBC294ECC313FCD2943094034304DF
:0A0AB40080120ABF0BBB08EBAF0471
:010ABE002215
:1009F900C203D2947F0C7E00120AC3C2947F507E38
:100A090000120AC3D2947F0A7E00120AC3A29492EA
:060A190003120ABFA20354
:010A1F0022B4
:100A2000AC071209F97FCC120A867F4E120A86E4BF
:100A3000FF120A86E4FF120A86AF04120A867F14A8
:050A40007E00020AC364
:0D0B77001209F95001227F5F120A20C322EB
:100748001209F97FCC120A867F44120A867F647EDA
:1007580000120AC31209F97FCC120A867FBE120A58
:1007680086120AA4A907120AA4EFFEE9FFEE30E7F1
:1007780024EFF4FFEEF4FEEF2401FFE43EFE7C00DC
:100788007D0A1205047D1012056BC3E49FF582E40F
:100798009EF58380107C007D0A1205047D101205E9
:0907A8006B8E838F82AF82AE8359
:0107B1002225
:100A4500E4F594F593F592F591F596F595F5B2F5EE
:100A5500B1F5B4F5B3F5CAF5C9F5CCF5CBF5E2F5C5
:020A6500E1228C
:100AEF00538EBF53890F758B18758DFCC28FD28EA5
:050AFF00D2ABD2AF22D2
:100977007F04120B697580FFE4FF120B697F061273
:100987000B69E4F5807F07120B697580FFE4FF129E
:0F0997000B697F05120B697580AFE4FF020B69D6
:0E0B5B00120A45E4FF120B69120977020AEF35
:0E0B6900EFC43354E0FFE5A0541F4FF5A02267
:0F069700014E000251000002530000024F00000C
:050BB500054E0208BD21
:1007B200AF4E7521008F22C3E5229552FFE52195A8
:1007C20051FEC3EF9405EE94004009852151852224
:1007D2005212086DC3E5229554FFE5219553FEC3DD
:1007E200EF940AEE940040098521538522541203A6
:1007F2001CC3E5229550FFE521954FFEC3EF9432CD
:0E080200EE9400400985214F8522501209D145
:0108100022C5
:0606A6000159000158009B
:01001A0022C3
:030BBD0002001E15
:100A6700AF4EC3EF9559C3940A40058F5912001A28
:0E0A7700C3EF9558C3946440058F58120BBD11
:010A8500224E
:1006AC00011900010D00010A17010B3B010C3A0264
:1006BC001000D5020E00E6C102C1010108000109BB
:0306CC0000C1006A
:10001E00E5197009120BAE120B77751901E519640B
:10002E0001600302031B7F0DFE120B185002B20279
:10003E00A202B392037F01120B840509E509C39452
:10004E0004400AE4F5091207488E108F117F047ED2
:10005E0000120B18501E75121875130375140F75B8
:10006E00150575160E75173B7518377B007A0079D6
:07007E0012120811300112FB
:100085007F01120B90A20092037F02120B84B20033
:10009500800CE4FF120B90C2037F02120B84E50B68
:1000A5007008E50C7004D203800AE50CC394054082
:1000B50007C203E4FF120B84AF080508EFB404126E
:1000C5007B007A0079121206D085160A85170B85F2
:1000D500180CE508C394054003E4F508200216D37F
:1000E500E511950FE510950E4004D2018002C2017D
:1000F500300202C20130021AE50B7008E50C7004EB
:10010500D2018009E50CC394054002C20120020218
:10011500C201E50D600302019EF526752710F5283D
:10012500752910F52A752B10F52C752D10F52E75E2
:100135002F107B10FA7D01FC7F19120AD9AE10AF82
:10014500117C007D64120516AD077F05120BA7AE65
:1001550010AF117C007D641205167E007F0ACFCD9D
:10016500CFCECCCE120516EF2420FD7F06120BA7AD
:10017500AE10AF117C007D641205167E007F0ACF9C
:10018500CDCFCECCCE1205167F07120BA77F0C7EE6
:1001950000120B185003750D01E50D6401706BF528
:1001A50026752710F528752910F52A752B11F52CBC
:1001B500752D10F52E752F107B10FA7D02FC7F1919
:1001C500120AD9E50A75F00A84FD7F03120BA7E52B
:1001D5000A75F00A84ADF07F04120BA7E50B75F0E4
:1001E5000A84FD7F06120BA7E50B75F00A84ADF0B6
:1001F5007F07120BA7120BBABF1103750D0B7F0CEE
:100205007E00120B185003750D02E50D64026003A4
:100215000202B6F526752710F528752910F52A75F9
:100225002B10F52C752D10F52E752F107B10FA7DE2
:1002350003FC7F19120AD9AE0EAF0F7C007D0A129E
:1002450005167C007D0A120516AD077F06120BA761
:10025500AE0EAF0F7C007D0A1205167C007D0A12DA
:1002650005167F07120BA77F0C7E00120B18500393
:10027500E4F50D7F117E00120B185016E50F9464FE
:10028500E50E9400400C74F6250FF50F74FF350E3E
:10029500F50E7F107E00120B185016C3E50F94DE85
:1002A500E50E9403500B740A250FF50FE4350EF592
:1002B5000EE50D640B705FF526752710F528752979
:1002C50010F52A752B11F52C752D10F52E752F109F
:1002D5007B10FA7D02FC7F19120AD9E50B75F00A2D
:1002E50084FD7F03120BA7E50B75F00A84ADF07F43
:1002F50004120BA7E50C75F00A84FD7F06120BA707
:10030500E50C75F00A84ADF07F07120BA7120BBA46
:06031500BFC803750D01D5
:01031B0022BF
:1005D300020B9CE493A3F8E493A34003F68001F297
:1005E30008DFF48029E493A3F85407240CC8C33329
:1005F300C4540F4420C8834004F456800146F6DFF8
:10060300E4800B0102040810204080900653E47E2E
:10061300019360BCA3FF543F30E509541FFEE493EC
:10062300A360010ECF54C025E060A840B8E493A3B3
:10063300FAE493A3F8E493A3C8C582C8CAC583CADE
:10064300F0A3C8C582C8CAC583CADFE9DEE780BE96
:0106CF00002A
:10048A00BB010689828A83E0225002E722BBFE0270
:09049A00E32289828A83E49322A3
:1004A300BB010CE58229F582E5833AF583E022500E
:1004B30006E92582F8E622BBFE06E92582F8E22258
:0D04C300E58229F582E5833AF583E4932272
:1004D000BB010689828A83F0225002F722BBFE010B
:0204E000F32205
:1004E200F8BB010DE58229F582E5833AF583E8F050
:1004F200225006E92582C8F622BBFE05E92582C8FC
:02050200F222E3
:10050400EF8DF0A4A8F0CF8CF0A428CE8DF0A42E0B
:02051400FE22C5
:10051600BC000BBE0029EF8DF084FFADF022E4CCC9
:10052600F875F008EF2FFFEE33FEEC33FCEE9DEC92
:10053600984005FCEE9DFE0FD5F0E9E4CEFD22EDD8
:10054600F8F5F0EE8420D21CFEADF075F008EF2F22
:10055600FFED33FD4007985006D5F0F222C398FD13
:050566000FD5F0EA22B0
:10056B00C2D5EC30E709B2D5E4C39DFDE49CFCEEAB
:10057B0030E715B2D5E4C39FFFE49EFE120516C308
:10058B00E49DFDE49CFC800312051630D507C3E403
:06059B009FFFE49EFE221A
:1005A100D083D082F8E4937012740193700DA3A3E9
:1005B10093F8740193F5828883E4737402936860FD
:0605C100EFA3A3A380DFFD
:00000001FF
