:030000000205C72F
:0C05C700787FE4F6D8FD75815A02060E1C
:03001B00020902D5
:10090200C0E0C0F0C083C082C0D075D000C000C0BB
:1009120001C002C003C004C005C006C007120C68B3
:10092200D007D006D005D004D003D002D001D00029
:0B093200D0D0D082D083D0F0D0E032D3
:0B0C4900120BFC1207AC120AAF80F87F
:1006530008340000000000000000013100013200F6
:0306630001330060
:1008670074342531F8E66013AF310531A8077401F8
:10087700088002C333D8FC42338012AF310531A858
:10088700077401088002C333D8FCF45233E531C33F
:1008970094084003E4F531E532653360127F0412B2
:0F08A7000C0AE533F4F580E4FF120C0A853332B6
:0108B600221F
:0C0C2500A203E433FE74342FF8A606226C
:100BBE00E4F534F535F536F537F538F539F53AF51A
:020BCE003B22C8
:1009A6003F065B4F666D7D077F6F777C395E797199
:1009B6000040761E7038375C733E783D6750376E60
:0B09C600BF86DBCFE6EDFD87FFEF46AC
:0D0666000847101010101010101001460071
:070C540074472FF8A60522EA
:1008B7007580FF7F07120C0AE4FF120C0AAF46A8E7
:1008C700077401088002C333D8FCF5807F06120C39
:1008D7000AE4FF120C0AAF46054674472FF8E69064
:1008E70009A693F4F5807F07120C0AE4FF120C0A9D
:0A08F700E546C394084003E4F5460B
:0109010022D3
:100B2100754710754810754910754A10754B107549
:090B31004C10754D10754E102298
:100B6C008F478D488B4985284A852A4B852C4C8587
:060B7C002E4D85304E22D3
:0F067300011EC8011DC8011A00011B00011C0057
:10031C007523FF7524C975B00FC2C2C2C4A2C292A4
:10032C00B6A2C492B7E5B0540FF523E51A146025B4
:10033C0014700302042B14700302045F2403600383
:10034C00020480E523640F6006751A0102048075AF
:10035C001DC8020480E523B40F06E4F51A020480DC
:10036C00E52344F0F5B0D2C2D2C4A2C292B6A2C464
:10037C0092B785B023E5231205A103CC7703D17B7B
:10038C0003D67D03DB7E03E0B703E5BB03EABD03C5
:10039C00EFBE03F4D703F9DB03FEDD0403DE040830
:1003AC00E7040DEB0412ED0417EE03C6F703C8FBCC
:1003BC0003CAFD03DBFE0000041C80048007800AD6
:1003CC00751C048052751C05804D751C0680487583
:1003DC001C078043751C08803E751C098039751CF0
:1003EC000A8034751C0B802F751C0C802A751C0D13
:1003FC008025751C0E8020751C0F801B751C1080B1
:10040C0016751C118011751C12800C751C1380073D
:10041C00E4F51A751CC922851C1D751A02805575C8
:10042C00B00FC2C2C2C4A2C292B6A2C492B7E5B007
:10043C00540FF523640F6011051BE51BD394464044
:10044C0033E4F51B751A03802BE4F51BF51A851C98
:10045C0024802175B00FC2C2C2C4A2C292B6A2C47B
:10046C0092B7E5B0540FF523B40F09E4F51AE51C67
:0D047C002464F524E52464C9600385241E72
:010489002250
:050C6200AF1E751EC964
:010C6700226A
:030C6D00AF1D2296
:0706820002570000015600C1
:0C0C3100EF60047F0180027F008F5722DB
:0C0C3D00EF60047F0180027F008F5822CE
:1009D100E4F523E5576003432310E55860034323FF
:1009E10040E556652360107F05120C0A852380E4DB
:0709F100FF120C0A852356DA
:0109F80022DC
:0E0BEE0080828486888A8C81838587898B8D9E
:0E0689000343000000073C50592309040325D9
:100BAB00E4FEC297EF1392A3EFC313FFD2970EBECF
:020BBB0008F040
:010BBD002215
:100B9700C29300C29700D29300120BABAF05120BA2
:040BA700ABC2932228
:06093D00EC900BF593FFA6
:10094300E4FDC29300C29700D29300120BABE4FF05
:10095300C297EDC313FD30A303430580D2970FBFA6
:1009630008EEC29300C29700D29700C2A300D2A39D
:0309730000AF05CD
:01097600225E
:040003001204A3FF41
:10000700EF75F00A84C454F0FEEF75F00A84EE250C
:03001700F0FF22D5
:0F0BD000EFC4540F75F00AA4FEEF540F2EFF224E
:070C5B00C293C297C2A3225D
:10080B009000061200038F229000051200038F2325
:10081B009000041200038F249000021200038F2516
:10082B009000011200038F269000031200038F2704
:10083B0012048AFF1200078F28E4FD7F8E120B979C
:10084B00E4FCEC900BEE93FF74222CF8E6FD120BFC
:0C085B00970CBC07ED7D807F8E020B9790
:1006D000E4FC12093D74222CF8A6070CBC07F3E5D4
:1006E00022547FFF120BD0900006EF1204E2E523A4
:1006F000547FFF120BD0900005EF1204E2E5245462
:100700003FFF120BD0900004EF1204E2E525543FA6
:10071000FF120BD0900002EF1204E2E526541FFFF7
:10072000120BD0900001EF1204E2E5275407FF12EC
:100730000BD0900003EF1204E2AF28120BD0EF02AF
:0207400004D0E3
:0F0BDF00EF60047D808002E4FD7F8E120B972271
:020B3A00AC0706
:100B3C007F80120943EC6005EF44808003EF547F03
:060B4C00FD7F80120B97F3
:010B52002280
:020B5300AC07ED
:100B55007F84120943AD07EC60054305808003538C
:070B6500053F7F84020B979E
:100A6A00E4FD7F8E120B97E4FCEC900BEE93FF747F
:100A7A003C2CF8E6FD120B970CBC07ED7D807F8EAF
:030A8A00020B97C5
:100A2000E4FC12093D74432CF8A6070CBC03F3E464
:100A3000FC74432CF8E6FF120BD074432CF8A60785
:040A40000CBC03EDFA
:010A4400228F
:040B07007F057E00E8
:100B0B00EF1FAA0670011E4A600BE4FDEDC3940CA7
:050B1B0050EE0D80F713
:010B200022B2
:020ACE00A90776
:100AD000E4FBC294E9139294120B07D294E9C31376
:0C0AE000F90BBB08ED7F057E00020B0B3C
:100AEC00E4FCFBC294ECC313FCD294309403430497
:0A0AFC0080120B070BBB08EBAF04E0
:010B060022CC
:1009F900C203D2947F0C7E00120B0BC2947F507EEF
:100A090000120B0BD2947F0A7E00120B0BA2949258
:060A190003120B07A2030B
:010A1F0022B4
:100A4500AC071209F97FCC120ACE7F4E120ACEE40A
:100A5500FF120ACEE4FF120ACEAF04120ACE7F14AB
:050A65007E00020B0BF6
:0D0C18001209F95001227F5F120A45C32224
:100742001209F97FCC120ACE7F44120ACE7F647E50
:1007520000120B0B1209F97FCC120ACE7FBE120ACD
:10076200CE120AECA907120AECEFFEE9FFEE30E71F
:1007720024EFF4FFEEF4FEEF2401FFE43EFE7C00E2
:100782007D0A1205047D1012056BC3E49FF582E415
:100792009EF58380107C007D0A1205047D101205EF
:0907A2006B8E838F82AF82AE835F
:0107AB00222B
:100A8D00E4F594F593F592F591F596F595F5B2F5A6
:100A9D00B1F5B4F5B3F5CAF5C9F5CCF5CBF5E2F57D
:020AAD00E12244
:100B8200538EBF53890F758B18758DFCC28FD28E11
:050B9200D2ABD2AF223E
:100977007F04120C0A7580FFE4FF120C0A7F06122F
:100987000C0AE4F5807F07120C0A7580FFE4FF125A
:0F0997000C0A7F05120C0A7580AFE4FF020C0AF0
:0E0BFC00120A8DE4FF120C0A120977020B8216
:0E0C0A00EFC43354E0FFE5A0541F4FF5A022C5
:0F069700014F0002520000025400000250000008
:050C6800054F0208B772
:1007AC00AF4F7521008F22C3E5229553FFE52195AC
:1007BC0052FEC3EF9405EE94004009852152852228
:1007CC0053120867C3E5229555FFE5219554FEC3E6
:1007DC00EF940AEE940040098521548522551203AA
:1007EC001CC3E5229551FFE5219550FEC3EF9432D1
:0E07FC00EE940040098521508522511209D14A
:01080A0022CB
:0606A600015A0001590099
:01001A0022C3
:030C700002001E61
:100AAF00AF4FC3EF955AC3940A40058F5A12001ADD
:0E0ABF00C3EF9559C3946440058F59120C7013
:010ACD002206
:1006AC00011900010D00010A17010B3B010C3A0264
:1006BC001000D5020E00E6C102C1010108000109BB
:0306CC0000C1006A
:10001E00E5197009120C5B120C18751901E51964BB
:06002E0001600302031B48
:10003400120C628F21E521B40D05B2027521C8A20C
:1000440002B392037F01120C250509E509C3940448
:10005400400AE4F5091207428E108F11E521B40419
:100064002175121875130375140F75150575160E81
:1000740075173B7518377B007A00791212080B75D7
:0500840021C83001124B
:100089007F01120C31A20092037F02120C25B200EB
:10009900800CE4FF120C31C2037F02120C25E50B20
:1000A9007008E50C7004D203800AE50CC39405407E
:1000B90007C203E4FF120C25AF080508EFB40412C8
:1000C9007B007A0079121206D085160A85170B85EE
:1000D900180CE508C394054003E4F508200216D37B
:1000E900E511950FE510950E4004D2018002C20179
:1000F900300202C20130021AE50B7008E50C7004E7
:10010900D2018009E50CC394054002C20120020214
:10011900C201E50D60030201A1F527752810F52933
:10012900752A10F52B752C10F52D752E10F52F75D8
:1001390030107B10FA7D01FC7F19120B6CAE10AFE9
:10014900117C007D64120516AD077F05120C54AEB3
:1001590010AF117C007D641205167E007F0ACFCD99
:10016900CFCECCCE120516EF2420FD7F06120C54FB
:10017900AE10AF117C007D641205167E007F0ACF98
:10018900CDCFCECCCE1205167F07120C54E521B483
:100199000C06750D017521C8E50D6401706AF52716
:1001A900752810F529752A10F52B752C11F52D7563
:1001B9002E10F52F7530107B10FA7D02FC7F191275
:1001C9000B6CE50A75F00A84FD7F03120C54E50AED
:1001D90075F00A84ADF07F04120C54E50B75F00A32
:1001E90084FD7F06120C54E50B75F00A84ADF07F8F
:1001F90007120C54120C6DBF1103750D0BE521B4D8
:100209000C06750D027521C8E50D64026003020232
:10021900B6F527752810F529752A10F52B752C10B8
:10022900F52D752E10F52F7530107B10FA7D03FC16
:100239007F19120B6CAE0EAF0F7C007D0A120516EA
:100249007C007D0A120516AD077F06120C54AE0E0E
:10025900AF0F7C007D0A1205167C007D0A12051677
:100269007F07120C54E521B40C06E4F50D7521C87D
:10027900E521B4111AD3E50F9464E50E9400400FFB
:1002890074F6250FF50F74FF350EF50E7521C8E5C7
:1002990021B41019C3E50F94DEE50E9403500E74D2
:1002A9000A250FF50FE4350EF50E7521C8E50D6425
:1002B9000B705FF527752810F529752A10F52B7530
:1002C9002C11F52D752E10F52F7530107B10FA7D38
:1002D90002FC7F19120B6CE50B75F00A84FD7F0394
:1002E900120C54E50B75F00A84ADF07F04120C541E
:1002F900E50C75F00A84FD7F06120C54E50C75F0C7
:100309000A84ADF07F07120C54120C6DBFC8037537
:020319000D01D4
:01031B0022BF
:1005D300020C49E493A3F8E493A34003F68001F2E9
:1005E30008DFF48029E493A3F85407240CC8C33329
:1005F300C4540F4420C8834004F456800146F6DFF8
:10060300E4800B0102040810204080900653E47E2E
:10061300019360BCA3FF543F30E509541FFEE493EC
:10062300A360010ECF54C025E060A840B8E493A3B3
:10063300FAE493A3F8E493A3C8C582C8CAC583CADE
:10064300F0A3C8C582C8CAC583CADFE9DEE780BE96
:0106CF00002A
:10048A00BB010689828A83E0225002E722BBFE0270
:09049A00E32289828A83E49322A3
:1004A300BB010CE58229F582E5833AF583E022500E
:1004B30006E92582F8E622BBFE06E92582F8E22258
:0D04C300E58229F582E5833AF583E4932272
:1004D000BB010689828A83F0225002F722BBFE010B
:0204E000F32205
:1004E200F8BB010DE58229F582E5833AF583E8F050
:1004F200225006E92582C8F622BBFE05E92582C8FC
:02050200F222E3
:10050400EF8DF0A4A8F0CF8CF0A428CE8DF0A42E0B
:02051400FE22C5
:10051600BC000BBE0029EF8DF084FFADF022E4CCC9
:10052600F875F008EF2FFFEE33FEEC33FCEE9DEC92
:10053600984005FCEE9DFE0FD5F0E9E4CEFD22EDD8
:10054600F8F5F0EE8420D21CFEADF075F008EF2F22
:10055600FFED33FD4007985006D5F0F222C398FD13
:050566000FD5F0EA22B0
:10056B00C2D5EC30E709B2D5E4C39DFDE49CFCEEAB
:10057B0030E715B2D5E4C39FFFE49EFE120516C308
:10058B00E49DFDE49CFC800312051630D507C3E403
:06059B009FFFE49EFE221A
:1005A100D083D082F8E4937012740193700DA3A3E9
:1005B10093F8740193F5828883E4737402936860FD
:0605C100EFA3A3A380DFFD
:00000001FF
