:030000000205589E
:0C055800787FE4F6D8FD75815702059FFE
:03001B0002083F99
:10083F00C0E0C0F0C083C082C0D075D000C000C07F
:10084F0001C002C003C004C005C006C007120AC021
:10085F00D007D006D005D004D003D002D001D000ED
:0B086F00D0D0D082D083D0F0D0E03297
:0B0A9E00120A5E1205E412096280F8E3
:1006D8000834000000000000000001310001320071
:0306E800013300DB
:1007A40074342531F8E66013AF310531A8077401BC
:1007B400088002C333D8FC42338012AF310531A81C
:1007C400077401088002C333D8FCF45233E531C303
:1007D40094084003E4F531E532653360127F041276
:0F07E4000A6CE533F4F580E4FF120A6C853332BA
:0107F30022E3
:0C0A7A00A203E433FE74342FF8A6062219
:100A2000E4F534F535F536F537F538F539F53AF5B9
:020A30003B2267
:1008A9003F065B4F666D7D077F6F777C395E797197
:1008B9000040761E7038375C733E783D6750376E5E
:0B08C900BF86DBCFE6EDFD87FFEF46AA
:0D06EB00083D1010101010101010013C0000
:070AA900743D2FF8A60522A1
:1007F4007580FF7F07120A6CE4FF120A6CAF3CA8F5
:10080400077401088002C333D8FCF5807F06120AFE
:100814006CE4FF120A6CAF3C053C743D2FF8E69083
:1008240008A993F4F5807F07120A6CE4FF120A6C9E
:0A083400E53CC394084003E4F53CE2
:01083E002297
:10098100753D10753E10753F10754010754110751D
:0909910042107543107544102258
:1009CC008F3D8D3E8B3F852840852A41852C428565
:0609DC002E438530442289
:0F06F8000152C80151C8014E00014F00015000CE
:1002F5007523FF7524C975B00FC2C2C2C4A2C292CC
:10030500B6A2C492B7E5B0540FF523E54E146025A7
:1003150014700302040414700302043824036003F8
:10032500020459E523640F6006754E0102045975F0
:1003350051C8020459E523B40F06E4F54E020459E9
:10034500E52344F0F5B0D2C2D2C4A2C292B6A2C48B
:1003550092B785B023E52312053203A57703AA7B5F
:1003650003AF7D03B47E03B9B703BEBB03C3BD03AF
:10037500C8BE03CDD703D2DB03D7DD03DCDE03E143
:10038500E703E6EB03EBED03F0EE039FF703A1FBB9
:1003950003A3FD03B4FE000003F580048007800A73
:1003A5007550048052755005804D7550068048750E
:1003B50050078043755008803E7550098039755047
:1003C5000A803475500B802F75500C802A75500D9E
:1003D500802575500E802075500F801B755010803C
:1003E500167550118011755012800C7550138007C9
:1003F500E4F54E7550C922855051754E02805575EC
:10040500B00FC2C2C2C4A2C292B6A2C492B7E5B02E
:10041500540FF523640F6011054FE54FD394464003
:1004250033E4F54F754E03802BE4F54FF54E8550BB
:1004350024802175B00FC2C2C2C4A2C292B6A2C4A2
:1004450092B7E5B0540FF523B40F09E4F54EE55026
:0D0455002464F524E52464C9600385245265
:010462002277
:050AB700AF527552C9A9
:010ABC002217
:030ABD00AF512214
:070707000254000001530041
:0C0A8600EF60047F0180027F008F54228B
:0C0A9200EF60047F0180027F008F55227E
:1008D400E4F523E5546003432310E5556003432303
:1008E40040E553652360107F05120A6C852380E47C
:0708F400FF120A6C8523537B
:0108FB0022DA
:0E0A500080828486888A8C81838587898B8D3D
:100A0D00E4FEC296EF139297EFC313FFD2960EBE7C
:020A1D0008F0DF
:010A1F0022B4
:1009E200E4FFFEC296EFC313FF309703430780D2A2
:0509F200960EBE08EEA8
:0109F70022DD
:0F0A3200EFC4540F75F00AA4FEEF540F2EFF22ED
:0400030012047CFF68
:10000700EF75F00A84C454F0FEEF75F00A84E5F04A
:030017004EFF2277
:070AB000C2CAC296C29722E0
:10094100C2CA00C29600D2CA00120A0DAF05120A2D
:100951000DC2CA00C29600D29600C29700D297007B
:010961002273
:1008FC00C2CA00C29600D2CA00EF4401FF120A0D10
:10090C001209E2C2CA00C29600D29600C29700D267
:02091C00970042
:01091E0022B6
:100748009000061200038F199000051200038F1AFB
:100758009000041200038F1B9000021200038F1CEC
:100768009000011200038F1D9000031200038F1EDA
:10077800120463FF1200078F1FE4FD7F8E120941E8
:10078800E4FCEC900A5093FF74192CF8E6FD12096A
:0C079800410CBC07ED7D807F8E02094102
:10066000E4FDED900A5793FF1208FC74222DF8A6C2
:10067000070DBD07EDE522547FFF120A32900006F8
:10068000EF1204BBE523547FFF120A32900005EFFE
:100690001204BBE524543FFF120A32900004EF120B
:1006A00004BBE525543FFF120A32900002EF12040A
:1006B000BBE526541FFF120A32900001EF1204BB63
:1006C000E5275407FF120A32900003EF1204BBAF74
:0806D00028120A32EF0204A90E
:0F0A4100EF60047D808002E4FD7F8E1209412268
:02099A00AD07A7
:10099C007F801208FCED6005EF44808003EF547FEC
:0609AC00FD7F80120941ED
:0109B2002222
:0209B300AC078F
:1009B5007F841208FCAD07EC600543058080035376
:0709C500053F7F8402094198
:10091F00E4F594F593F592F591F596F595F5B2F515
:10092F00B1F5B4F5B3F5CAF5C9F5CCF5CBF5E2F5EC
:02093F00E122B3
:1009F800538EBF53890F758B18758DFCC28FD28E9D
:050A0800D2ABD2AF22C9
:10087A007F04120A6C7580FFE4FF120A6C7F06126D
:10088A000A6CE4F5807F07120A6C7580FFE4FF1298
:0F089A000A6C7F05120A6C7580AFE4FF020A6CCE
:0E0A5E0012091FE4FF120A6C12087A0209F84E
:0E0A6C00EFC43354E0FFE5A0541F4FF5A02265
:10070E00014500024A000002480000024C000002AF
:03071E0046000092
:030AC000054522C7
:1005E400AF457521008F22C3E522954BFFE5219588
:1005F4004AFEC3EF9402EE9400400985214A852205
:100604004B1207F4C3E5229549FFE5219548FEC343
:10061400EF9405EE9400400985214885224912078C
:10062400A4C3E522954DFFE521954CFEC3EF940A42
:10063400EE9400400985214C85224D1202F5C3E554
:10064400229547FFE5219546FEC3EF9432EE9400D0
:0B06540040098521468522471208D48A
:01065F002278
:0607210001570001560023
:01001A0022C3
:030AC30002001E10
:10096200AF45C3EF9557C3940A40058F5712001A3B
:0E097200C3EF9556C3946440058F56120AC316
:010980002254
:10072700011800010C00010917010A3B010B3A02ED
:100737000F00D5020D00E6C102C101010800C1008A
:10001E00E518701B120AB075111875120375130FBF
:10002E0075140575150E75161EE4F517751801E590
:08003E0018640160030202F4E2
:10004600120AB78F21E521B40D05B2027521C8A2A7
:0C00560002B392037F01120A7A300112FB
:100062007F01120A86A20092037F02120A7AB2006C
:10007200800CE4FF120A86C2037F02120A7AE50AA2
:100082007008E50B7004D203800AE50BC3940540A7
:1000920007C203E4FF120A7AAF080508EFB404129C
:1000A2007B007A00791112066085150985160A858A
:1000B200170BE508C394054003E4F508200216D3A4
:1000C200E510950EE50F950D4004D2018002C201A4
:1000D200300202C20130021AE50A7008E50B700410
:1000E200D2018009E50BC394054002C2012002023D
:1000F200C201E50C600302017AF527752810F52983
:10010200752A10F52B752C10F52D752E10F52F75FF
:1001120030107B10FA7D01FC7F191209CCAE0FAFB3
:10012200107C007D641204DDAD077F05120AA9AEC2
:100132000FAF107C007D641204DD7E007F0ACFCDFC
:10014200CFCECCCE1204DDEF2420FD7F06120AA909
:10015200AE0FAF107C007D641204DD7E007F0ACFFB
:10016200CDCFCECCCE1204DD7F07120AA9E521B491
:100172000C06750C017521C8E50C6401706AF5273F
:10018200752810F529752A10F52B752C11F52D758A
:100192002E10F52F7530107B10FA7D02FC7F19129C
:1001A20009CCE50975F00A84FD7F03120AA9E50965
:1001B20075F00A84ADF07F04120AA9E50A75F00A07
:1001C20084FD7F06120AA9E50A75F00A84ADF07F64
:1001D20007120AA9120ABDBF1103750C0BE521B45F
:1001E2000C06750C027521C8E50C6402600302025C
:1001F2008FF527752810F529752A10F52B752C1007
:10020200F52D752E10F52F7530107B10FA7D03FC3D
:100212007F191209CCAE0DAF0E7C007D0A1204DDEF
:100222007C007D0A1204DDAD077F06120AA9AE0D1D
:10023200AF0E7C007D0A1204DD7C007D0A1204DD13
:100242007F07120AA9E521B40C06E4F50C7521C852
:10025200E521B4111AD3E50E9464E50D9400400F24
:1002620074F6250EF50E74FF350DF50D7521C8E5F2
:1002720021B41019C3E50E94DEE50D9403500E74FB
:100282000A250EF50EE4350DF50D7521C8E50C6451
:100292000B705FF527752810F529752A10F52B7557
:1002A2002C11F52D752E10F52F7530107B10FA7D5F
:1002B20002FC7F191209CCE50A75F00A84FD7F035E
:1002C200120AA9E50A75F00A84ADF07F04120AA9A0
:1002D200E50B75F00A84FD7F06120AA9E50B75F09D
:1002E2000A84ADF07F07120AA9120ABDBFC80375BE
:0202F2000C01FD
:0102F40022E7
:10056400020A9EE493A3F8E493A34003F68001F205
:1005740008DFF48029E493A3F85407240CC8C33398
:10058400C4540F4420C8834004F456800146F6DF67
:10059400E4800B01020408102040809006D8E47E19
:1005A400019360BCA3FF543F30E509541FFEE4935C
:1005B400A360010ECF54C025E060A840B8E493A323
:1005C400FAE493A3F8E493A3C8C582C8CAC583CA4E
:1005D400F0A3C8C582C8CAC583CADFE9DEE780BE06
:0107470000B1
:10046300BB010689828A83E0225002E722BBFE0297
:09047300E32289828A83E49322CA
:10047C00BB010CE58229F582E5833AF583E0225035
:10048C0006E92582F8E622BBFE06E92582F8E2227F
:0D049C00E58229F582E5833AF583E4932299
:1004A900BB010689828A83F0225002F722BBFE0132
:0204B900F3222C
:1004BB00F8BB010DE58229F582E5833AF583E8F077
:1004CB00225006E92582C8F622BBFE05E92582C823
:0204DB00F2220B
:1004DD00BC000BBE0029EF8DF084FFADF022E4CC03
:1004ED00F875F008EF2FFFEE33FEEC33FCEE9DECCC
:1004FD00984005FCEE9DFE0FD5F0E9E4CEFD22ED12
:10050D00F8F5F0EE8420D21CFEADF075F008EF2F5B
:10051D00FFED33FD4007985006D5F0F222C398FD4C
:05052D000FD5F0EA22E9
:10053200D083D082F8E4937012740193700DA3A358
:1005420093F8740193F5828883E47374029368606C
:06055200EFA3A3A380DF6C
:00000001FF
