:0300000002018674
:0C018600787FE4F6D8FD7581460201CDBB
:03001B00020416C6
:10041600C0E0C0F0C083C082C0D075D000C000C0AC
:1004260001C002C003C004C005C006C0071204F51F
:10043600D007D006D005D004D003D002D001D0001A
:0B044600D0D0D082D083D0F0D0E032C4
:0B05A40012055612021212028D80F8A0
:1002EB000824000000000000000001210001220092
:0302FB00012300DC
:10033F0074242521F8E66013AF210521A807740165
:10034F00088002C333D8FC42238012AF210521A8B5
:10035F00077401088002C333D8FCF45223E521C38C
:10036F0094084003E4F521E522652360127F04120F
:0F037F000564E523F4F580E4FF1205648523226D
:01038E00224C
:0C058000A200E433FE74242FF8A606222B
:10054400E4F524F525F526F527F528F529F52AF50A
:020554002B2258
:100480003F065B4F666D7D077F6F777C395E7971C4
:100490000040761E7038375C733E783D6750376E8B
:0B04A000BF86DBCFE6EDFD87FFEF46D7
:0D02FE00081810101010101010100117003B
:0705AF0074182FF8A60522C5
:10038F007580FF7F07120564E4FF120564AF17A89D
:10039F00077401088002C333D8FCF5807F0612056D
:1003AF0064E4FF120564AF17051774182FF8E69071
:1003BF00048093F4F5807F07120564E4FF1205644F
:0A03CF00E517C394084003E4F51796
:0103D9002201
:10051600751810751910751A10751B10751C107545
:090526001D10751E10751F102236
:100003008F188D198B1A850E1B85101C85121D8563
:06001300141E85161F22D9
:0C030B00013FC8013C00013D00013E0024
:10001E007542FF7543C975B00FC2C2C2C4A2C29267
:10002E00B6A2C492B7E5B0540FF542E53C14602277
:10003E0014700302012714700302015B2403600392
:10004E0002017CE542640F700302017C753C0102E3
:10005E00017CE542B40F06E4F53C02017CE5424426
:10006E00F0F5B0D2C2D2C4A2C292B6A2C492B785E3
:10007E00B042E5421203F000CB7700D07B00D57D75
:10008E0000DA7E00DFB700E4BB00E9BD00EEBE0083
:10009E00F3D700F8DB00FDDD0102DE0107E7010CFE
:1000AE00EB0111ED0116EE00C5F700C7FB00C9FD0F
:1000BE0000DAFE0000011B80048007800A753E04F2
:1000CE008052753E05804D753E068048753E078010
:1000DE0043753E08803E753E098039753E0A803470
:1000EE00753E0B802F753E0C802A753E0D80257552
:1000FE003E0E8020753E0F801B753E108016753E9D
:10010E00118011753E12800C753E138007E4F53C8C
:10011E00753EC922753C02805575B00FC2C2C2C46D
:10012E00A2C292B6A2C492B7E5B0540FF542640FC4
:10013E006011053DE53DD394464033E4F53D753CF5
:10014E0003802BE4F53DF53C853E43802175B00FD1
:10015E00C2C2C2C4A2C292B6A2C492B7E5B0540F34
:10016E00F542B40F09E4F53CE53E2464F543E5435E
:07017E0064C9600385433FE3
:010185002257
:0505B600AF3F753FC9D5
:0105BB00221D
:070317000245000001440053
:0C058C00EF60047F0180027F008F452299
:0C059800EF60047F0180027F008F46228C
:1004AB00E4F542E5456003434210E54660034342F1
:1004BB0040E544654260107F05120564854280E487
:0704CB00FF120564854244A5
:0104D2002207
:1004D300E4F594F593F592F591F596F595F5B2F566
:1004E300B1F5B4F5B3F5CAF5C9F5CCF5CBF5E2F53D
:0204F300E12204
:10052F00538EBF53890F758B18758DFCC28FD28E6A
:05053F00D2ABD2AF2297
:100451007F041205647580FFE4FF1205647F0612B4
:100461000564E4F5807F071205647580FFE4FF12DF
:0F04710005647F051205647580AFE4FF02056422
:0E0556001204D3E4FF12056412045102052FB3
:0E056400EFC43354E0FFE5A0541F4FF5A02272
:10031E00022C000002320000023000000234000005
:04032E00022E00009B
:1004F500052DE52D7002052CAE2CAF2DE4FCFD7B02
:10050500607AEAF9F8D31203DA5005E4F52CF52DF3
:0105150022C3
:10021200852C40852D41C3E5419533FFE54095325C
:10022200FEC3EF9402EE94004009854032854133CB
:1002320012038FC3E5419531FFE5409530FEC3EFD0
:100242009405EE9400400985403085413112033F08
:10025200C3E5419535FFE5409534FEC3EF940AEEC0
:100262009400400985403485413512001EC3E541A2
:10027200952FFFE540952EFEC3EF9432EE94004099
:0A0282000985402E85412F1204ABC0
:01028C00224F
:0C033200023A0000023600000238000011
:0100190022C4
:0305BC00020572C3
:01001A0022C3
:10028D00852C40852D41C3E541953BFFE540953AD1
:10029D00FEC3EF940AEE9400400985403A85413B38
:1002AD00120019C3E5419537FFE5409536FEC3EFC2
:1002BD009464EE940040098540368541371205BCA3
:1002CD00C3E5419539FFE5409538FEC3EF94E8EE5F
:0D02DD009403400985403885413912001A0C
:0102EA0022F1
:0E0572007D01E4FF1205AFD2007F020205807A
:100192000205A4E493A3F8E493A34003F68001F2DA
:1001A20008DFF48029E493A3F85407240CC8C3336E
:1001B200C4540F4420C8834004F456800146F6DF3D
:1001C200E4800B01020408102040809002EBE47EE0
:1001D200019360BCA3FF543F30E509541FFEE49332
:1001E200A360010ECF54C025E060A840B8E493A3F9
:1001F200FAE493A3F8E493A3C8C582C8CAC583CA24
:10020200F0A3C8C582C8CAC583CADFE9DEE780BEDB
:01033E0000BE
:1003DA00EB9FF5F0EA9E42F0E99D42F0EC6480C89A
:0603EA0064809845F0223A
:1003F000D083D082F8E4937012740193700DA3A39C
:1004000093F8740193F5828883E4737402936860AF
:06041000EFA3A3A380DFAF
:00000001FF
