:030000000202F108
:0C02F100787FE4F6D8FD75814F020338D9
:03000B0002061CCE
:10061C00C0E0C0F0C083C082C0D075D000C000C0A4
:10062C0001C002C003C004C005C006C0071209B057
:10063C00D007D006D005D004D003D002D001D00012
:0B064C00D0D0D082D083D0F0D0E032BC
:0B09A5001209BB1204E61205DB80F80B
:10093B00E4F594F593F592F591F596F595F5B2F5F9
:02094B00B122D7
:1008EC00538E7F5389F0758A18758CFCC28DD28C0F
:0508FC00D2A9D2AF22D9
:10065700E4FF1209717F041209717580FFE4FF122C
:1006670009717F06120971E4F580FF1209717F078E
:100677001209717580FFE4FF1209717F0512097174
:080687007580AFE4FF02097168
:0E097100EFC43354E0FFE5A0541F4FF5A02261
:0909BB0012093B1206570208EC78
:10047A000233000002370000023500000239000092
:08048A00022F00000231000006
:0B09B0000534E53470020533020544F5
:1004E600853308853409C3E5099538FFE50895374E
:1004F600FEC3EF9405EE9400400985083785093858
:10050600120406C3E5099536FFE5089535FEC3EFE7
:100516009414EE9400400985083585093612068F35
:10052600C3E509953AFFE5089539FEC3EF940AEE4F
:0D0536009400400985083985093A12037DBB
:010543002295
:1005DB00853308853409C3E5099530FFE508952F68
:1005EB00FEC3EF9464EE9400400985082F85093013
:1005FB0012095FC3E5099532FFE5089531FEC3EF9C
:10060B0094F4EE9401400985083185093212087281
:01061B0022BC
:10049200013F00023D00D5013C32013B0C01450FFA
:0C04A200024300E6C103C102C100C10119
:0B098D00200008D2001208571207F9E2
:01099800223C
:10094D0075403775413B7542137B007A0079400243
:02095D00072B66
:10000E00E53F14606C1470030200BD24F970030206
:10001E00010A24096003020143AE3DAF3E7C007D20
:10002E00641201D0AA06AB07AE3DAF3E7C007D64E4
:10003E001201D07E007F0ACFCDCFCECCCE1201D012
:10004E00EF2420F516E43EF5158A138B14750F0078
:10005E00751010751100751210AE3DAF3E7C007D0F
:10006E000A1201D08C178D187B107A007D010201C7
:10007E0004E54575F00A84750F00F510E54575F039
:10008E000A84AFF07511008F12751300751411E507
:10009E003B75F00A84751500F516E53B75F00A847C
:1000AE00AFF07517008F187B107A007D028047AE77
:1000BE0043AF447C007D641201D0AA06AB07AE4369
:1000CE00AF447C007D641201D07E007F0ACFCDCF7D
:1000DE00CECCCE1201D08E178F188A158B16750FB7
:1000EE00007510107511007512107513007514102F
:1000FE007B107A007D037C007F198036A203E4FA20
:10010E0033FB750F00751010751100751205751300
:10011E0000751411E53C75F00A84751500F516E5A9
:10012E003C75F00A84AFF07517008F187D117C00B6
:06013E007F1D1208C02223
:10025B007F0D12097F5005A202B39202E53F146095
:10026B001614602824F96069240970797F0C12092F
:10027B007F5072753F01227F0C12097F5003753F2F
:10028B00027F1112097F505D753F09227F0C120905
:10029B007F5003E4F53F7F1112097F5016E544941C
:1002AB0064E5439400400C74F62544F54474FF3523
:1002BB0043F5437F1012097F502BC3E54494DEE5D1
:1002CB004394035020740A2544F544E43543F54325
:1002DB00227F1112097F5003753F017F1012097F96
:0602EB00500312094D2230
:1007D500300314D205120003A20192057F0212090B
:1007E50099A201B3920122C205120003C2057F023C
:0307F5001209994D
:0107F80022DE
:10083A00E53B700AE53C7006D205FF120999E53CD2
:0D084A00D394044007C205E4FF120999226F
:1006F900A202B392057F01120999300214E53B70F9
:1007090006E53C7002D203E53CD394044013C203CE
:1007190022D3E53E9544E53D95434003D20322C2E9
:020729000322A9
:10095F0012098D12000E12025B1207D512083A020D
:02096F0006F987
:100872007B007A00794012078685403C85413B85A2
:0A08820042451205988E3D8F3E227C
:1004AE0008270000000000000000022100000223C7
:0604BE0000000225000011
:10040600AF2274272FF8E6B401177E007401A807FF
:10041600088005C333CE33CED8F94224EE4223807A
:100426001B7E007401A822088005C333CE33CED8C4
:10043600F9F4FFEEF4FEEF5224EE5223E52665248E
:100446007004E525652360157F04120971E524F41F
:10045600F580E4FF1209718523258524260522E50A
:100466002270020521AE21FF7C007D081202258C38
:03047600218D22B3
:010479002260
:0C099900A205E433FE74272FF8A6062206
:10075B003F065B4F666D7D077F6F777C395E7971E6
:10076B000040761E7038375C733E783D6750376EAD
:0B077B00BF86DBCFE6EDFD87FFEF46F9
:0E04C400084810101010101010100246000012
:100544007580FF7F07120971E4FF120971AF47A894
:10055400077401088002C333D8FCF5807F061209B2
:1005640071E4FF12097174482547F8E690075B931C
:10057400F4F5807F07120971E4FF1209710547E55C
:100584004770020546AE46FF7C007D081202258CAA
:03059400468D474A
:010597002241
:1008C0008F488D498B4A85104B85124C85144D8578
:0608D000164E85184F22B0
:0A04D200C104021900AF021B00AFC5
:10068F00300408751B00751CBF8006751B00751C98
:10069F00AFE51A651C7004E519651B6018E4FF12BD
:1006AF000971851C807F05120971E4FF120971859C
:0506BF001B19851C1A47
:0106C4002213
:05000300A20592042299
:0904DC00011FC8011D00011EC82A
:10037D00750A0F75B00FC2C2C2C4A2C292B6A2C492
:10038D0092B7E5B0540FF50AE51D14601114605ACB
:10039D0024027064E50A640F605E751D0122E50A92
:1003AD00B40F028050E50A44F0F5B0D2C2D2C4A217
:1003BD00C292B6A2C492B785B00AE50A242560118F
:1003CD0024F4601224FC601324147012751E0C802A
:1003DD000D751E0D8008751E108003751E11E51E0E
:1003ED0064C86004751D0222800BE50AB40F0985EF
:0803FD001E1F751EC8E4F51D6A
:0104050022D4
:0D097F00C205EFB51F05751FC8D205A20502
:01098C002248
:10091500E4FEC297EF1392A3EFC313FFD2970EBE67
:0209250008F0D8
:0109270022AD
:10090100C29300C29700D29300120915AF051209D4
:0409110015C2932256
:1006C500E4FDC29300C29700D29300120915E4FF1E
:1006D500C297EDC313FD30A303430580D2970FBF27
:1006E50008EEC29300C29700D29700C2A300D2A31E
:0306F50000AF054E
:0106F80022DF
:0708D6001206C5EF547FFF7D
:0F08DD00EFC4540F75F00AA4FEEF540F2EFF2244
:10092800EF75F00A84C454F0FEEF75F00A84EE25E2
:03093800F0FF22AB
:10085700C293C297C2A3E4FD7F8E1209017F0A12D9
:0B0867000928EF547FFD7F800209018B
:10072B00120144FF120928AD077F801209019000C6
:10073B000112015DFF120928AD077F82120901909A
:10074B00000212015DFF120928AD077F8402090127
:100786007F811208D6EF12018A7F831208D6900065
:1007960001EF12019C7F851206C5EF543FFF120838
:0807A600DD900002EF02019C4E
:04088C007F057E0066
:10089000EF1FAA0670011E4A600BE4FDEDC3940C25
:0508A00050EE0D80F791
:0108A5002230
:02081C00A9072A
:10081E00E4FBC294E913929412088CD294E9C313A8
:0C082E00F90BBB08ED7F057E000208906E
:1008A600E4FBC294ECC313FCD2943094034304805B
:0908B60012088C0BBB08EBAF0427
:0108BF002216
:1007AE00C205D2947F0C7E00120890C2947F507EB8
:1007BE0000120890D2947F0A7E00120890A29492A2
:0607CE000512088CA205D3
:0107D4002202
:1007F9001207AE7FCC12081C7F4E12081CE4FF12B0
:10080900081CE4FF12081C7F5F12081C7F147E007D
:0308190002089042
:100598001207AE7FCC12081C7F4412081C7F647EB1
:1005A800001208901207AE7FCC12081C7FBE1208FA
:1005B8001C1208A6A9071208A6EFFEE9FF7C007D19
:1005C8000A1201BEEEC4F854F0C868FEEFC4540F16
:0205D80048FFDA
:0105DA0022FE
:1002FD000209A5E493A3F8E493A34003F68001F269
:10030D0008DFF48029E493A3F85407240CC8C33301
:10031D00C4540F4420C8834004F456800146F6DFD0
:10032D00E4800B010204081020408090047AE47EE2
:10033D00019360BCA3FF543F30E509541FFEE493C5
:10034D00A360010ECF54C025E060A840B8E493A38C
:10035D00FAE493A3F8E493A3C8C582C8CAC583CAB7
:10036D00F0A3C8C582C8CAC583CADFE9DEE780BE6F
:0104E5000016
:10014400BB010689828A83E0225002E722BBFE02B9
:09015400E32289828A83E49322EC
:10015D00BB010CE58229F582E5833AF583E0225057
:10016D0006E92582F8E622BBFE06E92582F8E222A1
:0D017D00E58229F582E5833AF583E49322BB
:10018A00BB010689828A83F0225002F722BBFE0154
:02019A00F3224E
:10019C00F8BB010DE58229F582E5833AF583E8F099
:1001AC00225006E92582C8F622BBFE05E92582C845
:0201BC00F2222D
:1001BE00EF8DF0A4A8F0CF8CF0A428CE8DF0A42E55
:0201CE00FE220F
:1001D000BC000BBE0029EF8DF084FFADF022E4CC13
:1001E000F875F008EF2FFFEE33FEEC33FCEE9DECDC
:1001F000984005FCEE9DFE0FD5F0E9E4CEFD22ED22
:10020000F8F5F0EE8420D21CFEADF075F008EF2F6B
:10021000FFED33FD4007985006D5F0F222C398FD5C
:050220000FD5F0EA22F9
:10022500C2D5EC30E709B2D5E4C39DFDE49CFCEEF4
:1002350030E715B2D5E4C39FFFE49EFE1201D0C39B
:10024500E49DFDE49CFC80031201D030D507C3E496
:060255009FFFE49EFE2263
:00000001FF
