:100D98008F3B120E687F90120D22120E227F401296
:100DA8000D22120E22AF3B120D22120E22020E85C8
:100E0F00E4FEC297EF1392A3EFC313FFD2970EBE68
:020E1F0008F0D9
:010E210022AE
:10004F00C29300C29700D29300120E0FAF05120E8B
:04005F000FC2932217
:100CEE00E4FDC29300C29700D29300120E0FE4FFF0
:100CFE00C297EDC313FD30A303430580D2970FBFF8
:100D0E0008EEC29300C29700D29700C2A300D2A3EE
:030D1E0000AF051E
:010D210022AF
:040DF500D2A07F0AFF
:100DF900000000000000000000000000000000AE3C
:060E0900071FEE70EB2252
:0F0E6800D2A1120DF5C2A17F0A120DF9C2A0226C
:0C0E8500C2A1120DF5D2A17F0A020DF9E6
:020D2200AD071B
:100D2400E4FCC2A07F0A120DF9ED30E704D2A180E1
:100D340002C2A17F0A120DF9D2A0ED25E0FD7F0ABF
:090D4400120DF90CBC08DBC2A081
:010D4D002283
:100E2200120DF5A2A1E433FDC2A07F0A120DF9AFA3
:010E320005BA
:010E3300229C
:090C30000150FF014E00014F00CC
:090E9100C2C2C2C4D2B2D2B32223
:090E9A00D2C2D2C4C2B2C2B3221A
:030EB300AF50221B
:030EB6008F502238
:100AE200E52030E07C5320FEE54E146017146029A7
:100AF2001460622403706A120E9A30C20320C46129
:100B0200754E0122120E9A20C405754F01800620EF
:100B1200C24C754F02754E0222120E91754E032081
:100B2200B209E54FB401047550052220B309E54F1F
:100B3200B401047550042220B209E54FB4020475D1
:100B420050092220B309E54FB4020475500822E48B
:100B5200F54EF54F22120E9130B20630B303E4F592
:010B62004E44
:010B6300226F
:100DB800120E46120E58120DD8120EA3120C7512EE
:100DC80006DB120AE2120D4E1205D3120BE680EF73
:0E0E770080828486888A8C81838587898B8D12
:080C3900061802030509050578
:060B64008B3B8A3C893D39
:100B6A00753FFF75400E75417EE4F53EAB3FAA40E6
:100B7A00A9411203C3FF120CEE7442253EF8A607E0
:100B8A0074012541F541E43540F540053EE53EC393
:100B9A00940340D8E544C4540FAB3BAA3CA93D1288
:100BAA0003DCE544540FAB3BAA3CA93D900001127B
:100BBA0003EEE543C4540F9000021203EEE54354DA
:100BCA000F9000031203EEE542C4540F9000041282
:0C0BDA0003EEE542540F9000050203EE0C
:100C7500E4FD7F8E12004F900E77E493FFE51CC4D0
:100C850054F0451DFD12004F900E78E493FFE51AD0
:100C9500C454F0451BFD12004F900E79E493FFE517
:100CA50018C454F04519FD12004F7D807F8E020057
:010CB5004FEF
:100E3400C0F9A4B0999282F88090FFC1BF8CC78892
:020E44008E8995
:0D0C410008460102030405060708014500EE
:070EAC0074462FF8A6052291
:100003007580FFE5A0541F44E0F5A053A01FAF4542
:10001300A8077401088002C333D8FCF580E5A05417
:100023001F44C0F5A053A01F74462545F8E6900E63
:100033003493F580E5A0541F44E0F5A053A01F05B9
:0B00430045E545C394084003E4F54583
:01004E00228F
:070C4E000208000001200074
:100DD8007580FFE5A0541F4480F5A053A01FE4F5DB
:0D0DE80080E5A0541F44A0F5A053A01F22D9
:080EA3007F6C7E91DEFEDFFC96
:010EAB002224
:100E5800538E7F438904E4F58CF58AD28CC28D22A7
:100D7600C28CAF8CEFAD8AF508EDF509AE08FF7CA5
:100D8600007D051204108E088F09E4F58CF58AD2D1
:020D96008C22AD
:100E4600438E0475D72075D6D1438E1043AF04D296
:020E5600AF22C9
:0300630002099DF2
:10099D00C0E0C0F0C083C082C0D075D000C000C020
:1009AD0001C002C003C004C005C006C00712000389
:1009BD00050BE50B7002050A640A450A7007F50A76
:1009CD00F50B432001050DE50D7002050C64644522
:1009DD000C7007F50CF50D432002050FE50F7002A5
:1009ED00050E64C8450E7007F50EF50F432004057E
:1009FD0011E5117002051064C845107007F510F56A
:100A0D00114320080513E5137002051264C8451241
:100A1D007007F512F513120D760515E51570020523
:100A2D001464C845147007F514F515432020D0073C
:100A3D00D006D005D004D003D002D001D000D0D044
:090A4D00D082D083D0F0D0E03259
:100C5500012F00013701013001022C07D0022700C6
:0F0C650000023800000129FF022A0000012E00C2
:1006DB00E4F53AE52020E5030207DE5320DF7B003B
:1006EB007A007931120B64E5092528F52BE50835DD
:1006FB0027F52AE4F52EC3E527648094805015C3B3
:10070B00E49528FFE49527FEC3E5099FE5089E5075
:10071B0003752E01E52E60030207D9D3E539952B1E
:10072B00E538952A5018852A38852B39853121854E
:10073B003222853323853424853525853626D3E52A
:10074B002B94F4E52A940150057F330207DBC37425
:10075B00F4952B7401952A5071C3E52B952DE52A41
:10076B00952C5066E52B240CFDE52A34FEFCE41297
:10077B000309E4FBFA7980784012015EC004C005DE
:10078B00C006C007E52D240CFDE52C34FEFCE4125D
:10079B000309A804A905AA06AB07D007D006D00504
:1007AB00D004120267E4FBFA7980783F12006DE403
:1007BB00FBFA797F784312015EE4FBFA79A078406B
:1007CB001202671203428F3A80067FFF8002E4FF1A
:0307DB00120D9864
:0107DE0022F8
:1004BB008F3A7D11E4FF120EACE53A640160030242
:1004CB00059B7D107F01120EAC7D0A7F02120EACD4
:1004DB00D3E5399410E5389427400DAE38AF397C0D
:1004EB00277D1012042280047E007F0AAD077F0354
:1004FB00120EACD3E53994E8E5389403401AAE38C4
:10050B00AF397C277D101204227E037FE8CFCDCF3D
:10051B00CECCCE12042280047E007F0AAD077F046E
:10052B00120EACD3E5399464E5389400401AAE381A
:10053B00AF397C037DE81204227E007F64CFCDCFE0
:10054B00CECCCE12042280047E007F0AAD077F053D
:10055B00120EACD3E539940AE5389400401AAE3844
:10056B00AF397C007D641204227E007F0ACFCDCF91
:10057B00CECCCE12042280047E007F0AAD077F060C
:10058B00120EACAE38AF397C007D0A1204228032D9
:10059B00E53A640270317D0F7F01120EACAD217F05
:1005AB0002120EACAD227F03120EACAD237F0412F0
:1005BB000EACAD247F05120EACAD257F06120EAC32
:0805CB00AD267F07120EAC22E1
:1007DF007D10E4FF120EAC7D0A7F01120EAC7D0A74
:1007EF007F02120EACE52E640170217D0A7F031289
:1007FF000EAC7D0A7F04120EAC7D0A7F05120EAC83
:10080F007D0E7F06120EAC7D0E0208D9D3E52B9418
:10081F0010E52A9427400DAE2AAF2B7C277D1012AE
:10082F00042280047E007F0AAD077F03120EACD333
:10083F00E52B94E8E52A9403401AAE2AAF2B7C27C8
:10084F007D101204227E037FE8CFCDCFCECCCE1207
:10085F00042280047E007F0AAD077F04120EACD302
:10086F00E52B9464E52A9400401AAE2AAF2B7C0343
:10087F007DE81204227E007F64CFCDCFCECCCE1286
:10088F00042280047E007F0AAD077F05120EACD3D1
:10089F00E52B940AE52A9400401AAE2AAF2B7C0070
:1008AF007D641204227E007F0ACFCDCFCECCCE1234
:1008BF00042280047E007F0AAD077F06120EACAEC5
:1008CF002AAF2B7C007D0A1204227F07120EAC2266
:100CB600AD31E4FF120EACAD327F01120EAC7D0CED
:100CC6007F02120EACAD337F03120EACAD347F043F
:100CD600120EAC7D0C7F05120EACAD357F06120EE2
:080CE600ACAD367F07020EAC35
:1008DF008F3A7D0DE4FF120EACAD3A7F01120EACD4
:1008EF007D0A7F02120EAC7D0A7F03120EACE53A31
:1008FF0064017022AE2CAF2D7C037DE8120422AD73
:10090F00077F04120EACE4FD7F05120EACE4FD7FF1
:10091F0006120EAC8070E53A64027071D3E528942C
:10092F0000E52764809480401D7D0A7F04120EAC81
:10093F00AE27AF287C007D64120477AD077F0512C8
:10094F000EACE4FD803BC3E5276480948050227D8C
:10095F000C7F04120EACC3E49528FFE49527FE7CB0
:10096F00007D64120477AD077F05120EACE4FD80A5
:10097F00107D0A7F04120EAC7D0A7F05120EAC7D2E
:0E098F000A7F06120EACE4FD7F07120EAC22AA
:100D4E00E52030E0225320FDE52F14600D14600FD6
:100D5E0014600F240370100207DFAF370208DF02A2
:080D6E000CB6AF301204BB22E9
:100BE600E52030E2445320FBE52F700563290180A0
:100BF60003432901D3E52B952DE52A952C4009E5DC
:100C06002E70056329028013D3E52B952DE52A95D1
:100C16002C500543290280035329FD852980E5A030
:0A0C2600541F4480F5A053A01F22C4
:1005D300120EB3BF04247FFF120EB6052FE52FC3FF
:1005E30094044003E4F52FE52FB40103753701E5C7
:1005F3002F640360030206DA8030120EB3EF640542
:10060300702C7FFF120EB6E52FB4010A0537E537CC
:10061300B40303753701E52F640360030206DA05AB
:1006230030E530640360030206DA75300122120EEE
:10063300B3EF640870537FFF120EB6E52F640160B9
:10064300030206DAE537B4011C74E8252DF52D7491
:1006530003352CF52CE52DB4100BE52CB4270675CA
:100663002C03752DE8E5376402706C74642528F556
:1006730028E43527F527E52864E87004E5276403B3
:1006830070557527FC75287C22120EB3EF64097030
:10069300467FFF120EB6E52FB4013CE537B40116D1
:1006A3007418252DF52D74FC352CF52C452D70066D
:1006B300752C23752D28E537B4021C749C2528F569
:1006C3002874FF3527F527E528B4180BE527B4FC74
:0806D300067527037528842237
:100066000203AEE86480F8E933E83360110460F017
:10007600ED33EC337009E8FCE9FDEAFEEBFF220400
:1000860060DED3EB9FEA9EE99DE8C2E78CF0C2F7FB
:1000960095F0400CE8CCF8E9CDF9EACEFAEBCFFBC7
:1000A60012037985D0F05804700320D5B3E80470A4
:1000B600075002B2D50203B892D5EC0460F7E4CC3F
:1000C600C0E0C398F8603B94186008400DD0E0FB90
:1000D600020390E4FBFAC9FC8028E830E406E4C990
:1000E600FBE4CAFCE830E305E4C9CACBFCE85407E4
:1000F6006010F8C3E913F9EA13FAEB13FBEC13FCEF
:10010600D8F130F52FC3E49CFCEF9BFFEE9AFEED91
:1001160099FDD0E0FBEF4E4D4C701222DB0302033B
:10012600B5EC2CFCEF33FFEE33FEED33FDED30E79F
:10013600EB020390EF2BFFEE3AFEED39FDD0E0FB2C
:1001460050130BBB00030203B8ED13FDEE13FEEFD5
:0801560013FFEC13FC020390FF
:10015E00EC4D6011E8497017ED33EC3304600DE49B
:10016E00FCFFFEFD22E933E8330470F80203AE1201
:10017E00037958046009E4CC248150062850090202
:10018E0003B82840030203B5C0E0EB4A7044B980BF
:10019E0006D0E0FB0203A4EF4E701CBD8008EBFFFF
:1001AE00EAFEE9FD80EBE98DF0A4FEE5F0020247E0
:1001BE00E9CDF9EAFEEBFFEF89F0A4FCE5F0CE897C
:1001CE00F0A42EFFE435F0CD89F0A42DFEE435F039
:1001DE008067EF4E7005BD80D780C3EF8BF0A4AC67
:1001EE00F0EE8BF0A42CFCE435F0F8EF8AF0A42CA2
:1001FE00E5F038FCE433CB8DF0A42CFCE5F03BF8B5
:10020E00EE8AF0A42CFCE5F038F8E433CF89F0A4A4
:10021E002CFCE5F038CF3400CE89F0A42FFFE5F0AA
:10022E003EFEE433C98DF0A42EFEE5F039CD8AF002
:10023E00A42FFFE5F03EFEE43DFD33D0E0FB50077A
:10024E000BBB000F0203B8EC2CFCEF33FFEE33FEBA
:06025E00ED33FD020390E8
:100264000203B8EC5D046005E8590470030203AEB0
:10027400120379580460F6EC4860F2EC7004FDFE59
:10028400FF22C860DB2481C85009C398600250066D
:100294000203B59850CAF582E9294B4A7005AB822E
:1002A4000203A475F0007C1A7880C3EF9BEE9AEDEC
:1002B40099400DC3EF9BFFEE9AFEED99FDE842F0E5
:1002C400DC23ACF0D0E0FFD0E0FED0E0FDAB822038
:1002D400E7101BEB60BAEC2CFCEF33FFEE33FEEDC2
:1002E40033FD020390E803F830E705C0F075F00031
:1002F400EF2FFFEE33FEED33FD40B830E7C280AAA6
:1003040075F020800E75F010800575F0087D007E74
:10031400007F003392D530D5031204ADEC33401086
:10032400EF33FFEE33FEED33FDEC33FCD5F0ED227D
:0E033400E5F0247EA2D513CC92E7CDCEFF22B9
:10034200EDD2E7CD33EC3392D524814006E4FFFEB3
:10035200FDFC22FCE4CFCECDCC24E0501174FF8012
:10036200EDC3CC13CCCD13CDCE13CECF13CF0470AF
:07037200F030D5DE0204ADFE
:10037900E9D2E7C933E833F892D5EDD2E7CD33ECCA
:0703890033FC5002B2D52243
:10039000EC30E7100FBF000C0EBE00080DBD0004CE
:1003A0000BEB6014A2D5EB13FCED92E7FD2274FF7A
:1003B000FCFDFEFF22E480F8A2D574FF13FC7D80D3
:0303C000E480EFE7
:03000000020A569B
:0C0A5600787FE4F6D8FD758150020A9DFF
:1003C300BB010689828A83E0225002E722BBFE0238
:0903D300E32289828A83E493226B
:1003DC00BB010689828A83F0225002F722BBFE0100
:0203EC00F322FA
:1003EE00F8BB010DE58229F582E5833AF583E8F045
:1003FE00225006E92582C8F622BBFE05E92582C8F1
:02040E00F222D8
:10041000EF8DF0A4A8F0CF8CF0A428CE8DF0A42E00
:02042000FE22BA
:10042200BC000BBE0029EF8DF084FFADF022E4CCBE
:10043200F875F008EF2FFFEE33FEEC33FCEE9DEC87
:10044200984005FCEE9DFE0FD5F0E9E4CEFD22EDCD
:10045200F8F5F0EE8420D21CFEADF075F008EF2F17
:10046200FFED33FD4007985006D5F0F222C398FD08
:050472000FD5F0EA22A5
:10047700C2D5EC30E709B2D5E4C39DFDE49CFCEEA0
:1004870030E715B2D5E4C39FFFE49EFE120422C3F2
:10049700E49DFDE49CFC800312042230D507C3E4ED
:0604A7009FFFE49EFE220F
:0E04AD00C3E49FFFE49EFEE49DFDE49CFC2260
:100A6200020DB8E493A3F8E493A34003F68001F2E5
:100A720008DFF48029E493A3F85407240CC8C33395
:100A8200C4540F4420C8834004F456800146F6DF64
:100A9200E4800B0102040810204080900C30E47EB8
:100AA200019360BCA3FF543F30E509541FFEE49359
:100AB200A360010ECF54C025E060A840B8E493A320
:100AC200FAE493A3F8E493A3C8C582C8CAC583CA4B
:100AD200F0A3C8C582C8CAC583CADFE9DEE780BE03
:010C7400007F
:00000001FF
