:0300000002017C7E
:0C017C00787FE4F6D8FD7581540201C3C1
:03000B000203B637
:1003B600C0E0C0F0C083C082C0D075D000C000C00D
:1003C60001C002C003C004C005C006C00712055F15
:1003D600D007D006D005D004D003D002D001D0007B
:0B03E600D0D0D082D083D0F0D0E03225
:0B05540012056A12026A12048B80F884
:10051600E4F594F593F592F591F596F595F5B2F522
:02052600B12200
:10046A007F0412053A7580FF7F0612053AE4F5808B
:10047A007F0712053A7580FF7F0512053A7580AF2E
:01048A00224F
:1004EE00438E805389F0758A20758CD1C28DD28C43
:0504FE00D2A9D2AF22DB
:0E053A00EFC43354E0FFE5A0541F4FF5A0229C
:09056A0012051612046A0204EEE7
:1002C80002300000023A0000023C00000238000040
:0C02D80002320000023400000236000078
:0B055F000531E5317002053002036B2E
:10026A0085304E85314FC3E54F953BFFE54E953AB4
:10027A00FEC3EF9405EE94004009854E3A854F3B44
:10028A0012031BC3E54F953DFFE54E953CFEC3EFB8
:10029A00940AEE94004009854E3C854F3D12000EAB
:1002AA00C3E54F9539FFE54E9538FEC3EF9414EE3A
:0D02BA0094004009854E38854F3912041C10
:0102C7002214
:10048B00AF31AE30C3EF9533FDEE9532FCC3ED9437
:0D049B0064EC940040078E328F331202088B
:0104A8002231
:1002E40008410000000000000000013E00013F0042
:0302F400014000C6
:10031B007441253EF8E66013AF3E053EA807740115
:10032B00088002C333D8FC42408012AF3E053EA882
:10033B00077401088002C333D8FCF45240E53EC376
:10034B0094084003E4F53EE53F654060127F0412DC
:0F035B00053AE540F4F580E4FF12053A85403F8E
:01036A002270
:0C054800A200E433FE74412FF8A6062246
:10052800E4F541F542F543F544F545F546F547F55B
:02053800482257
:1004C2008F418D428B43850E4485104585124685AA
:0604D200144785164822C4
:0800030074412FF8E624FF22EE
:1003F1003F065B4F666D7D077F6F777C395E797154
:100401000040761E7038375C733E783D6750376E1A
:0B041100BF86DBCFE6EDFD87FFEF4666
:0D02F7000818101010101010101001170042
:10036B007580FF7F0712053AE4FF12053AAF17A815
:10037B00077401088002C333D8FCF5807F06120591
:10038B003AE4FF12053AAF17051774182FF8E690E9
:10039B0003F193F4F5807F0712053AE4FF12053A57
:0A03AB00E517C394084003E4F517BA
:0103B5002225
:0705730074182FF8A6052201
:1004A900751810751910751A10751B10751C1075B3
:0904B9001D10751E10751F1022A4
:1004D8008F188D198B1A85271B85291C852B1D853F
:0604E8002D1E852F1F22CE
:0F030400014DC8014CC8014900014A00014B00DE
:10000E007550FF7551C975B00FC2C2C2C4A2C2925B
:10001E00B6A2C492B7E5B0540FF550E54914602569
:10002E0014700302011D14700302015124036003B6
:10003E00020172E550640F60067549010201727586
:10004E004CC8020172E550B40F06E4F54902017284
:10005E00E55044F0F5B0D2C2D2C4A2C292B6A2C448
:10006E0092B785B050E55012044400BE7700C37BB2
:10007E0000C87D00CD7E00D2B700D7BB00DCBD002E
:10008E00E1BE00E6D700EBDB00F0DD00F5DE00FAA6
:10009E00E700FFEB0104ED0109EE00B8F700BAFB33
:1000AE0000BCFD00CDFE0000010E80048007800A1A
:1000BE00754B048052754B05804D754B0680487507
:1000CE004B078043754B08803E754B098039754B45
:1000DE000A8034754B0B802F754B0C802A754B0D97
:1000EE008025754B0E8020754B0F801B754B108035
:1000FE0016754B118011754B12800C754B138007C2
:10010E00E4F549754BC922854B4C754902805575EE
:10011E00B00FC2C2C2C4A2C292B6A2C492B7E5B018
:10012E00540FF550640F6011054AE54AD3944640CA
:10013E0033E4F54A754903802BE4F54AF549854BBE
:10014E0051802175B00FC2C2C2C4A2C292B6A2C45F
:10015E0092B7E5B0540FF550B40F09E4F549E54BED
:0D016E002464F551E55164C9600385514DCD
:01017B002261
:05058800AF4D754DC9E7
:01058D00224B
:03058E00AF4C224D
:10050300C200E54DB50709E4B50605D200754DC92E
:02051300A20044
:0105150022C3
:07031300025300000152AF8C
:10041C00E4F550E5536003435010E554600343503A
:10042C0040E552655060107F0512053A855080E416
:07043C00FF12053A85505242
:010443002296
:07057A00A200E433F5532257
:07058100A200E433F554224F
:100208007F047E001205035005D20012057A7F058F
:100218007E001205035005C20012057A7F067E0093
:100228001205035005D2001205817F077E001205D2
:10023800035005C200120581E4FF120003B39200C7
:10024800E4FF12054812058EEF75F00A84FD7F065B
:1002580012057312058EEF75F00A84ADF07F070260
:0202680005731C
:10018800020554E493A3F8E493A34003F68001F234
:1001980008DFF48029E493A3F85407240CC8C33378
:1001A800C4540F4420C8834004F456800146F6DF47
:1001B800E4800B01020408102040809002C8E47E0D
:1001C800019360BCA3FF543F30E509541FFEE4933C
:1001D800A360010ECF54C025E060A840B8E493A303
:1001E800FAE493A3F8E493A3C8C582C8CAC583CA2E
:1001F800F0A3C8C582C8CAC583CADFE9DEE780BEE6
:01031A0000E2
:10044400D083D082F8E4937012740193700DA3A347
:1004540093F8740193F5828883E47374029368605B
:06046400EFA3A3A380DF5B
:00000001FF
