:030000000208A54E
:0C08A500787FE4F6D8FD7581660208EC4F
:10072400024F0000024D0000024900000247000091
:08073400024B0000025100001D
:03006300020AD5B9
:100AD500C0E0C0F0C083C082C0D075D000C000C0E7
:100AE50001C002C003C004C005C006C0070550E52B
:100AF500507002054F120A8AD007D006D005D004DF
:100B0500D003D002D001D000D0D0D082D083D0F095
:030B1500D0E032FB
:100DDB00AF50AE4FC3EF954EFDEE954DFCC3ED946A
:0D0DEB0005EC940040078E4D8F4E12000E57
:010DF80022D8
:10093100854F08855009C3E509954AFFE5089549A2
:10094100FEC3EF9464EE9400400985084985094A85
:10095100120EFEC3E5099548FFE5089547FEC3EF72
:10096100940AEE94004009850847850948120FEE64
:10097100C3E509954CFFE508954BFEC3EF94F4EEF2
:100981009401400985084B85094C12005EC3E509B5
:100991009552FFE5089551FEC3EF94E8EE940340AC
:0A09A10009850851850952120FB6AE
:0109AB002229
:0B0FDA00120FE5120DDB12093180F848
:100D9700E4F594F593F592F591F596F595F5B2F599
:100DA700B1F5B4F5B3F5CAF5C9F5CCF5CBF5E2F570
:020DB700E12237
:100BDA00E4FF120F897580FF7F04120F89E4FF1268
:100BEA000F89E4F5807F06120F89E4FF120F8975D9
:100BFA0080FF7F07120F89E4FF120F897580AF7F8C
:090C0A0005120F89E4FF020F89B5
:100F7700538EFB75D71875D6FC438E1043AF04D23A
:020F8700AF2297
:100F8900AEA0EE541FFEF5A0EFC43354E04EF5A019
:010F99002235
:090FE500120D97120BDA020F77CE
:10073C00012B00012F0001461701252D012837C17F
:10074C00030239000002370000023D012C02420076
:10075C00000233FFFF540000000000000000000006
:10076C000000000000000000000000000244000037
:10077C000240000002260000023BFFFF5400140060
:10078C00000000000000000000000000000000005D
:10079C00000000013F00012D0C012E30023500003D
:1007AC0002290000012C00C100C10101210001221D
:0907BC0001012300012400C10227
:03000B00020FA938
:0D0FA900C0E00536E53670020535D0E032B7
:100ED200200012D200120E17120F13120D74120BF1
:050EE200188E428F4351
:010EE70022E8
:10006600E52B24FE70030202C324F9700302031178
:1000760014606214700302018D14700302023F249F
:100086000C60030203ECE54675F00A84FFE546754D
:10009600F00A84E5F0FD7C00E52575F00A84750F0D
:1000A60000F510E52575F00A84E5F0751100F512E6
:1000B600751300751411E52875F00A84751500F599
:1000C60016E52875F00A84E5F0751700F5187B111A
:1000D6007A0002030EE53F7003020162AE39AF3AC1
:1000E6007C007D641205B4C006C007AE39AF3A7C09
:1000F600007D641205B47E007F0ACFCDCFCECCCE74
:100106001205B4AA06AB07AE37AF387C007D641281
:1001160005B48E838F82AE37AF387C007D641205BE
:10012600B47E007F0ACFCDCFCECCCE1205B4EF245D
:1001360020F516E43EF5158583138582148A0F8B08
:1001460010751100751211AE37AF387C007D0A129A
:1001560005B48C178D18D003D0028022750F007558
:1001660010107511007512107513007514107515A1
:10017600007516107517007518107B107A007D1023
:100186007C007F0C02030EE53F7003020214AE44AE
:10019600AF457C007D641205B4C006C007AE44AF0F
:1001A600457C007D641205B47E007F0ACFCDCFCE9C
:1001B600CCCE1205B4AA06AB07AE40AF417C007D9B
:1001C600641205B48E838F82AE40AF417C007D649D
:1001D6001205B47E007F0ACFCDCFCECCCE1205B4A9
:1001E600EF2420F516E43EF5158583138582148ADF
:1001F6000F8B10751100751211AE40AF417C007D5A
:100206000A1205B48C178D18D003D0028022750F00
:100216000075101075110075121075130075141005
:100226007515007516107517007518107B107A0075
:100236007D107C007F1202030EE53F604A75F00ACE
:1002460084FD7C00E53F75F00A84E5F0FB7A00E565
:100256002D75F00A84750F00F510E52D75F00A84EA
:10026600AFF07511008F12751300751411E52E7518
:10027600F00A84751500F516E52E75F00A84AFF0C0
:100286007517008F188032E53F75F00A84FD7C00F3
:10029600E53F75F00A84E5F0FB7A00750F007510EE
:1002A6001075110075121075130075141075150070
:1002B6007516107517007518107F0F804BAE3DAF81
:1002C6003E7C007D641205B4AA06AB07AE3DAF3E88
:1002D6007C007D641205B47E007F0ACFCDCFCECCE4
:1002E600CE1205B48E178F188A158B16750F0075EA
:1002F60010107511007512107513007514107B100F
:100306007A007D107C007F18020EE8AE26AF27E447
:10031600FCFD7B607AEAF9F8C312063FAE42AF43B2
:100326007C007D6460731205B4C007C006AE42AFA0
:10033600437C007D641205B47E007F0ACFCDCFCE0C
:10034600CCCE1205B4AA06AB07AE26AF277C007D3D
:10035600641205B48E838F82AE26AF277C007D643F
:100366001205B47E007F0ACFCDCFCECCCE1205B417
:100376008E178F188583158582168A118B12D00FDA
:10038600D0107513007514117B107A007D107C0057
:100396007F0E120EE8C20480481205B4AA06AB0707
:1003A600AE42AF437C007D641205B47E007F0ACF67
:1003B600CDCFCECCCE1205B48E118F128A0F8B10F4
:1003C60075130075141175150075160A75170075E5
:1003D600180A7B107A007D107C007F0E120EE8D280
:0703E600047F04120FC22284
:100A2600E52B7004D2048003C204E4FF120FC2E572
:100A36002B640A600BE52B640B6005E52BB40C04F4
:100A4600D2048002C2047F01120FC2E52BB409044E
:100A5600D2048002C2047F02120FC2E53FC3940291
:100A6600401AD3E5439534E5429533400FD3E52745
:100A7600953CE526953B4004D2048002C2047F05DE
:040A8600120FC22267
:09065500E52B6409700302072380
:10065E001207E68F0AE50A64637003020723E52B8F
:10066E0024FE607224F8601A14602C14603B240C73
:10067E006003020723E50A64046003020723752B57
:10068E000A22E50AB40403752B02E50A6405600329
:10069E00020723752B0B22E50AB40403752B02E522
:1006AE000A64057070752B0C22E50AB40403752BD1
:1006BE0002E50AB40503752B0AE50A641D7056F5AA
:1006CE003FF52DF52EF540F541F544F545F537F599
:1006DE0038F539F53A22E50AB40403E4F52BE50AB8
:1006EE00B40816C3E53E94DEE53D9403500B740A40
:1006FE00253EF53EE4353DF53DE50AB40917D3E553
:10070E003E9400E53D9400400C74F6253EF53E7493
:05071E00FF353DF53D33
:0107230022B3
:100B9D00C3E52A94C8E5299400402BD3E52A94D0C7
:100BAD00E52994075020E52A2438FFE52934FFFE76
:100BBD007C007D141205A27D2D1205B4EF2464F581
:0D0BCD0027E43EF526227526EA75276022F2
:100DB900D3E543953EE542953D400FA20192047F5C
:100DC90003120FC2A201B3920122C2047F03120FC0
:010DD900C257
:010DDA0022F6
:100F51007B007A007930120B5B853028853125853D
:030F6100324622F3
:06000300120CF98F2C2203
:1003ED00E52125E02400F582E43400F583E542F0B3
:1003FD00A3E543F0E52125E02414F582E43400F56E
:10040D0083E526F0A3E527F00521E521B40A03E4F1
:10041D00F521900002E0FEA3E0FF900001E02FFF28
:10042D00900000E03EFE900005E02FFF900004E0FC
:10043D003EFE900007E02FFF900006E03EFE90008C
:10044D0009E02FFF900008E03EFE90000BE02FFF2B
:10045D0090000AE03EFE90000DE02FFF90000CE0B2
:10046D003EFE90000FE02FFF90000EE03EFE90004C
:10047D0011E02FFF900010E03EFE900013E02FFFE3
:10048D00900012E03EFEE522FBFD7C001205B48ECD
:10049D00378F38900016E0FEA3E0FF900015E02F97
:1004AD00FF900014E03EFE900019E02FFF90001821
:1004BD00E03EFE90001BE02FFF90001AE03EFE9004
:1004CD00001DE02FFF90001CE03EFE90001FE02F6E
:1004DD00FF90001EE03EFE900021E02FFF900020D7
:1004ED00E03EFE900023E02FFF900022E03EFE90C4
:1004FD000025E02FFF900024E03EFE900027E02F26
:10050D00FF900026E03EFEAD037C001205B48E4048
:0A051D008F41E522640A6002052206
:0105270022B1
:1009AC00E52314605D1460672402706D30036A12D5
:1009BC000B188E428F43120B9D852B2F752B0975AF
:1009CC002301AE26AF27E4FCFD7B607AEAF9F8C37D
:1009DC0012063F604485462D85252E053FD3E54301
:1009EC00953AE5429539400685423985433AD3E537
:1009FC00279545E5269544400685264485274502DE
:100A0C0003ED0524E524C3941D400E75230222E456
:090A1C00F523F524852F2BC203FC
:010A250022AE
:100E5100200317E52CC394324002D20230020BE585
:0A0E61002CC394145004C202D20303
:010E6B002264
:0C0FB60085352985362AE4F535F536220C
:100EFE00120ED2120066120003120A26120DB91239
:050F0E000E510209ACC8
:03005E00020F513D
:030FEE00020655A3
:1007C500085600000000000000000153000154001D
:0307D500015500CB
:10000E0074562553F8E66013AF530553A8077401D1
:10001E00088002C333D8FC42558012AF530553A853
:10002E00077401088002C333D8FCF45255E553C35C
:10003E0094084003E4F553E554655560127F0412AD
:0F004E000F89E555F4F580E4FF120F89855554AD
:01005D002280
:0C0FC200A204E433FE74562FF8A60622A9
:100CA3003F065B4F666D7D077F6F777C395E797199
:100CB3000040761E7038375C733E783D6750376E60
:0B0CC300BF86DBCFE6EDFD87FFEF46AC
:0D07D800085F1010101010101010015E00CE
:100A8A007580FF7F07120F89E4FF120F89AF5EA8F6
:100A9A00077401088002C333D8FCF5807F06120F61
:100AAA0089E4FF120F89AF5E055E745F2FF8E69046
:100ABA000CA393F4F5807F07120F89E4FF120F89C4
:0A0ACA00E55EC394084003E4F55E06
:010AD40022FF
:100EE8008F5F8D608B6185106285126385146485C0
:060EF80016658518662254
:1007E600750BFF750C6375B00FC2C2C2C4A2C2926C
:1007F600B6A2C492B7E5B0540FF50BE51914601E06
:10080600146065147003020891240360030208A2B1
:10081600E50B640F70030208A2751901807EE50BD3
:10082600B40F02803EE50B44F0F5B0D2C2D2C4A2AA
:10083600C292B6A2C492B785B00B751902E50B2415
:1008460085601124C4601224FC601324447014755E
:100856001A048048751A058043751A08803E751A71
:10086600098039E4F5198034E50B640F6011051B26
:10087600E51BD394644025E4F51B751903801DE43C
:10088600F519851A0CF51AF51B8011E50BB40F0C3A
:0E089600E4F519E51A2414F50CE4F51AAF0C7C
:0108A4002231
:100F6400E4FEC297EF1392A3EFC313FFD2970EBE12
:020F740008F083
:010F76002258
:100F3D00C29300C29700D29300120F64AF05120F37
:040F4D0064C29322C5
:100C1300E4FDC29300C29700D29300120F64E4FF75
:100C2300C297EDC313FD30A303430580D2970FBFD3
:100C330008EEC29300C29700D29700C2A300D2A3CA
:030C430000AF05FA
:010C4600228B
:0C0CCE00AB1CAA1DA91E120541FF7E00F0
:100CDA008E0A8F0B7C007D0A120609EFC454F0FBC2
:0F0CEA00AE0AAF0B7C007D0A120609EB2DFF222C
:090D2400120C137E00EF547FFF56
:100D2D008E0D8F0E7C007D10120609EF75F00AA452
:100D3D00FBAE0DAF0E7C007D10120609EB2DFF22D0
:100E1700C293C297C2A3E4FD7F8E120F3D7F0A7E65
:0D0E270000120CDAEF547FFD7F80020F3DBA
:100C47008B1C8A1D891E120528FF7E00120CDAAD47
:100C5700077F80120F3D900001120CCEAD077F82F7
:100C6700120F3D900002120CCEAD077F84020F3D9C
:100B5B008B0A8A0B890C7F81120D24AB0AAA0BA975
:100B6B000CEF12056E7F83120D24AB0AAA0BA90C96
:100B7B00900001EF1205807F85120C137E00EF545D
:100B8B003FFF120D2DAB0AAA0BA90C900002EF022E
:020B9B000580D3
:100F1300538E7F438904758AFF758CFFC28DD28CF3
:050F2300D2A9D2B922A1
:040E6C00D2A07F0A87
:100E7000000000000000000000000000000000AEC4
:060E8000071FEE70EB22DB
:0F0F9A00D2A1120E6CC2A17F0A120E70C2A02249
:0C0FCE00C2A1120E6CD2A17F0A020E70AC
:020C7700AD07C7
:100C7900E4FCC2A07F0A120E70ED30E704D2A18015
:100C890002C2A17F0A120E70D2A0ED25E0FD7F0AF3
:090C9900120E700CBC08DBC2A0B5
:010CA200222F
:100E3400E4FC120E6CED25E0FD30A103430501C274
:0C0E4400A07F0A120E700CBC08E8AF057D
:010E5000227F
:030F2800120C7731
:100F2B00120E6CA2A1E433FDC2A07F0A120E70AFA9
:010F3B0005B0
:010F3C002292
:100EBA00C2A0EF24FF92A17F0A120E70120E6CC21A
:080ECA00A0D2A17F0A020E7004
:100CF900120F9A7F90120F287F01120F28120FCE20
:100D0900120F9A7F91120C77120F2B120E34AD0726
:0A0D19007F01120EBA120FCEAF05D3
:010D230022AD
:040E86007F057E0066
:100E8A00EF1FAA0670011E4A600BE4FDEDC3940C25
:050E9A0050EE0D80F791
:010E9F002230
:020DF900A90748
:100DFB00E4FBC294E9139294120E86D294E9C313C6
:0C0E0B00F90BBB08ED7F057E00020E8A8B
:100EA000E4FBC294ECC313FCD2943094034304805B
:090EB000120E860BBB08EBAF0427
:010EB9002216
:100D4D00C204D2947F0C7E00120E8AC2947F507E14
:100D5D0000120E8AD2947F0A7E00120E8AA29492FD
:060D6D0004120E86A20430
:010D7300225D
:100D7400120D4D7FCC120DF97F4E120DF9E4FF12C6
:100D84000DF9E4FF120DF97F5F120DF97F147E0057
:030D9400020E8AC2
:100B1800120D4D7FCC120DF97F44120DF97F647EC2
:100B280000120E8A120D4D7FCC120DF97FBE120DE8
:100B3800F9120EA0A907120EA0EFFEE9FF7C007DB6
:100B48000A1205A2EEC4F854F0C868FEEFC4540FA8
:020B580048FF54
:010B5A002278
:1008B100020FDAE493A3F8E493A34003F68001F274
:1008C10008DFF48029E493A3F85407240CC8C33348
:1008D100C4540F4420C8834004F456800146F6DF17
:1008E100E4800B0102040810204080900724E47E7C
:1008F100019360BCA3FF543F30E509541FFEE4930C
:10090100A360010ECF54C025E060A840B8E493A3D2
:10091100FAE493A3F8E493A3C8C582C8CAC583CAFD
:10092100F0A3C8C582C8CAC583CADFE9DEE780BEB5
:0107E5000013
:10052800BB010689828A83E0225002E722BBFE02D1
:09053800E32289828A83E4932204
:10054100BB010CE58229F582E5833AF583E022506F
:1005510006E92582F8E622BBFE06E92582F8E222B9
:0D056100E58229F582E5833AF583E49322D3
:10056E00BB010689828A83F0225002F722BBFE016C
:02057E00F32266
:10058000F8BB010DE58229F582E5833AF583E8F0B1
:10059000225006E92582C8F622BBFE05E92582C85D
:0205A000F22245
:1005A200EF8DF0A4A8F0CF8CF0A428CE8DF0A42E6D
:0205B200FE2227
:1005B400BC000BBE0029EF8DF084FFADF022E4CC2B
:1005C400F875F008EF2FFFEE33FEEC33FCEE9DECF4
:1005D400984005FCEE9DFE0FD5F0E9E4CEFD22ED3A
:1005E400F8F5F0EE8420D21CFEADF075F008EF2F84
:1005F400FFED33FD4007985006D5F0F222C398FD75
:050604000FD5F0EA2211
:10060900C2D5EC30E709B2D5E4C39DFDE49CFCEE0C
:1006190030E715B2D5E4C39FFFE49EFE1205B4C3CB
:10062900E49DFDE49CFC80031205B430D507C3E4C6
:060639009FFFE49EFE227B
:10063F00EB9FF5F0EA9E42F0E99D42F0EC6480C832
:06064F0064809845F022D2
:00000001FF
