:0300000002018674
:0C018600787FE4F6D8FD7581410201CDC0
:03001B000203BA23
:1003BA00C0E0C0F0C083C082C0D075D000C000C009
:1003CA0001C002C003C004C005C006C007120576FA
:1003DA00D007D006D005D004D003D002D001D00077
:0B03EA00D0D0D082D083D0F0D0E03221
:0B055E0012051E1202121204BF80F8EA
:1002DE00082400000000000000000121000122009F
:0302EE00012300E9
:10028E0074242521F8E66013AF210521A807740117
:10029E00088002C333D8FC42238012AF210521A867
:1002AE00077401088002C333D8FCF45223E521C33E
:1002BE0094084003E4F521E522652360127F0412C1
:0F02CE00052CE523F4F580E4FF12052C8523228F
:0102DD0022FE
:0C053A00A200E433FE74242FF8A6062271
:10050C00E4F524F525F526F527F528F529F52AF542
:02051C002B2290
:100424003F065B4F666D7D077F6F777C395E797120
:100434000040761E7038375C733E783D6750376EE7
:0B044400BF86DBCFE6EDFD87FFEF4633
:0D02F1000818101010101010101001170048
:0705690074182FF8A605220B
:10032B007580FF7F0712052CE4FF12052CAF17A871
:10033B00077401088002C333D8FCF5807F061205D1
:10034B002CE4FF12052CAF17051774182FF8E69045
:10035B00042493F4F5807F0712052CE4FF12052C7F
:0A036B00E517C394084003E4F517FA
:010375002265
:1004DE00751810751910751A10751B10751C10757E
:0904EE001D10751E10751F10226F
:100003008F188D198B1A850E1B85101C85121D8563
:06001300141E85161F22D9
:0C02FE000138C80135000136000137004E
:10001E00753BFF753CC975B00FC2C2C2C4A2C29275
:10002E00B6A2C492B7E5B0540FF53BE53514602285
:10003E0014700302012714700302015B2403600392
:10004E0002017CE53B640F700302017C75350102F1
:10005E00017CE53BB40F06E4F53502017CE53B443B
:10006E00F0F5B0D2C2D2C4A2C292B6A2C492B785E3
:10007E00B03BE53B12047700CB7700D07B00D57DFB
:10008E0000DA7E00DFB700E4BB00E9BD00EEBE0083
:10009E00F3D700F8DB00FDDD0102DE0107E7010CFE
:1000AE00EB0111ED0116EE00C5F700C7FB00C9FD0F
:1000BE0000DAFE0000011B80048007800A753704F9
:1000CE008052753705804D75370680487537078025
:1000DE0043753708803E753709803975370A803485
:1000EE0075370B802F75370C802A75370D80257567
:1000FE00370E802075370F801B75371080167537B9
:10010E00118011753712800C7537138007E4F535A1
:10011E007537C922753502805575B00FC2C2C2C47B
:10012E00A2C292B6A2C492B7E5B0540FF53B640FCB
:10013E0060110536E536D394464033E4F536753511
:10014E0003802BE4F536F53585373C802175B00FED
:10015E00C2C2C2C4A2C292B6A2C492B7E5B0540F34
:10016E00F53BB40F09E4F535E5372464F53CE53C81
:07017E0064C96003853C38F1
:010185002257
:05057000AF387538C929
:010575002263
:07030A00023E0000013D006E
:0C054600EF60047F0180027F008F3E22E6
:0C055200EF60047F0180027F008F3F22D9
:10044F00E4F53BE53E6003433B10E53F6003433B70
:10045F0040E53D653B60107F0512052C853B80E430
:07046F00FF12052C853B3D47
:010476002263
:10049D00E4F594F593F592F591F596F595F5B2F59C
:1004AD00B1F5B4F5B3F5CAF5C9F5CCF5CBF5E2F573
:0204BD00E1223A
:1004F700538EBF53890F758B18758DFCC28FD28EA3
:05050700D2ABD2AF22CF
:1003F5007F0412052C7580FFE4FF12052C7F061281
:10040500052CE4F5807F0712052C7580FFE4FF12AB
:0F041500052C7F0512052C7580AFE4FF02052C26
:0E051E0012049DE4FF12052C1203F50204F7EF
:0E052C00EFC43354E0FFE5A0541F4FF5A022AA
:10031100012C0002310000022F0000023300000214
:030321002D0000AC
:03057600052C222F
:10021200AF2C7539008F3AC3E53A9532FFE539952F
:1002220031FEC3EF9402EE94004009853931853ADC
:100232003212032BC3E53A9530FFE539952FFEC301
:10024200EF9405EE9400400985392F853A30120269
:100252008EC3E53A9534FFE5399533FEC3EF940A30
:10026200EE94004009853933853A3412001EC3E505
:100272003A952EFFE539952DFEC3EF9432EE9400A8
:0B028200400985392D853A2E12044FEB
:01028D00224E
:0603240001410001400050
:0100190022C4
:0305790002037604
:1004BF00AF2CC3EF9541C3940A40058F4112001929
:0E04CF00C3EF9540C3946440058F4012057939
:0104DD0022FC
:100376001205708F39E53964C96031C2007F0712F2
:10038600053AE53975F06484FDE4FF120569E5393F
:1003960075F00A8475F00A84ADF07F01120569E5EF
:1003A6003975F00A84ADF07F02020569D2007F0735
:0303B60012053AF3
:0103B9002221
:1001920002055EE493A3F8E493A34003F68001F220
:1001A20008DFF48029E493A3F85407240CC8C3336E
:1001B200C4540F4420C8834004F456800146F6DF3D
:1001C200E4800B01020408102040809002DEE47EED
:1001D200019360BCA3FF543F30E509541FFEE49332
:1001E200A360010ECF54C025E060A840B8E493A3F9
:1001F200FAE493A3F8E493A3C8C582C8CAC583CA24
:10020200F0A3C8C582C8CAC583CADFE9DEE780BEDB
:01032A0000D2
:10047700D083D082F8E4937012740193700DA3A314
:1004870093F8740193F5828883E473740293686028
:06049700EFA3A3A380DF28
:00000001FF
