:0300000002018674
:0C018600787FE4F6D8FD7581410201CDC0
:03001B000203C31A
:1003C300C0E0C0F0C083C082C0D075D000C000C000
:1003D30001C002C003C004C005C006C00712057FE8
:1003E300D007D006D005D004D003D002D001D0006E
:0B03F300D0D0D082D083D0F0D0E03218
:0B0567001205271202121204C880F8CF
:1002DE00082400000000000000000121000122009F
:0302EE00012300E9
:10028E0074242521F8E66013AF210521A807740117
:10029E00088002C333D8FC42238012AF210521A867
:1002AE00077401088002C333D8FCF45223E521C33E
:1002BE0094084003E4F521E522652360127F0412C1
:0F02CE000535E523F4F580E4FF1205358523227D
:0102DD0022FE
:0C054300A200E433FE74242FF8A6062268
:10051500E4F524F525F526F527F528F529F52AF539
:020525002B2287
:10042D003F065B4F666D7D077F6F777C395E797117
:10043D000040761E7038375C733E783D6750376EDE
:0B044D00BF86DBCFE6EDFD87FFEF462A
:0D02F1000818101010101010101001170048
:0705720074182FF8A6052202
:100378007580FF7F07120535E4FF120535AF17A812
:10038800077401088002C333D8FCF5807F06120584
:1003980035E4FF120535AF17051774182FF8E690E6
:1003A800042D93F4F5807F07120535E4FF12053517
:0A03B800E517C394084003E4F517AD
:0103C2002218
:1004E700751810751910751A10751B10751C107575
:0904F7001D10751E10751F102266
:100003008F188D198B1A850E1B85101C85121D8563
:06001300141E85161F22D9
:0C02FE000138C80135000136000137004E
:10001E00753BFF753CC975B00FC2C2C2C4A2C29275
:10002E00B6A2C492B7E5B0540FF53BE53514602285
:10003E0014700302012714700302015B2403600392
:10004E0002017CE53B640F700302017C75350102F1
:10005E00017CE53BB40F06E4F53502017CE53B443B
:10006E00F0F5B0D2C2D2C4A2C292B6A2C492B785E3
:10007E00B03BE53B12048000CB7700D07B00D57DF2
:10008E0000DA7E00DFB700E4BB00E9BD00EEBE0083
:10009E00F3D700F8DB00FDDD0102DE0107E7010CFE
:1000AE00EB0111ED0116EE00C5F700C7FB00C9FD0F
:1000BE0000DAFE0000011B80048007800A753704F9
:1000CE008052753705804D75370680487537078025
:1000DE0043753708803E753709803975370A803485
:1000EE0075370B802F75370C802A75370D80257567
:1000FE00370E802075370F801B75371080167537B9
:10010E00118011753712800C7537138007E4F535A1
:10011E007537C922753502805575B00FC2C2C2C47B
:10012E00A2C292B6A2C492B7E5B0540FF53B640FCB
:10013E0060110536E536D394464033E4F536753511
:10014E0003802BE4F536F53585373C802175B00FED
:10015E00C2C2C2C4A2C292B6A2C492B7E5B0540F34
:10016E00F53BB40F09E4F535E5372464F53CE53C81
:07017E0064C96003853C38F1
:010185002257
:05057900AF387538C920
:01057E00225A
:07030A00023E0000013D006E
:0C054F00EF60047F0180027F008F3E22DD
:0C055B00EF60047F0180027F008F3F22D0
:10045800E4F53BE53E6003433B10E53F6003433B67
:1004680040E53D653B60107F05120535853B80E41E
:07047800FF120535853B3D35
:01047F00225A
:1004A600E4F594F593F592F591F596F595F5B2F593
:1004B600B1F5B4F5B3F5CAF5C9F5CCF5CBF5E2F56A
:0204C600E12231
:10050000538EBF53890F758B18758DFCC28FD28E99
:05051000D2ABD2AF22C6
:1003FE007F041205357580FFE4FF1205357F061266
:10040E000535E4F5807F071205357580FFE4FF1290
:0F041E0005357F051205357580AFE4FF02053502
:0E0527001204A6E4FF1205351203FE020500C1
:0E053500EFC43354E0FFE5A0541F4FF5A022A1
:10031100012C0002310000022F0000023300000214
:030321002D0000AC
:03057F00052C2226
:10021200AF2C7539008F3AC3E53A9532FFE539952F
:1002220031FEC3EF9402EE94004009853931853ADC
:1002320032120378C3E53A9530FFE539952FFEC3B4
:10024200EF9405EE9400400985392F853A30120269
:100252008EC3E53A9534FFE5399533FEC3EF940A30
:10026200EE94004009853933853A3412001EC3E505
:100272003A952EFFE539952DFEC3EF9432EE9400A8
:0B028200400985392D853A2E120458E2
:01028D00224E
:0603240001410001400050
:0100190022C4
:0305820002032B46
:1004C800AF2CC3EF9541C3940A40058F4112001920
:0E04D800C3EF9540C3946440058F4012058227
:0104E60022F3
:10032B001205798F39E53964C96035C2007F071230
:10033B000543E53975F06484FDE4FF120572E53978
:10034B0075F00A8475F00A84ADF07F01120572E531
:10035B003975F00A84ADF07F021205727F018009B6
:0C036B00D2007F07120543E4FF12055B7F
:010377002263
:10019200020567E493A3F8E493A34003F68001F217
:1001A20008DFF48029E493A3F85407240CC8C3336E
:1001B200C4540F4420C8834004F456800146F6DF3D
:1001C200E4800B01020408102040809002DEE47EED
:1001D200019360BCA3FF543F30E509541FFEE49332
:1001E200A360010ECF54C025E060A840B8E493A3F9
:1001F200FAE493A3F8E493A3C8C582C8CAC583CA24
:10020200F0A3C8C582C8CAC583CADFE9DEE780BEDB
:01032A0000D2
:10048000D083D082F8E4937012740193700DA3A30B
:1004900093F8740193F5828883E47374029368601F
:0604A000EFA3A3A380DF1F
:00000001FF
