:030000000202EC0D
:0C02EC00787FE4F6D8FD75814E020333E4
:03000B00020640AA
:10064000C0E0C0F0C083C082C0D075D000C000C080
:1006500001C002C003C004C005C006C0071209C51E
:10066000D007D006D005D004D003D002D001D000EE
:0B067000D0D0D082D083D0F0D0E03298
:0B09BA001209D01204D91205FF80F8CA
:10095000E4F594F593F592F591F596F595F5B2F5E4
:02096000B122C2
:10067B00E4FF1209867F041209867580FFE4FF12DE
:10068B0009867F06120986E4F580FF1209867F072B
:10069B001209867580FFE4FF1209867F0512098611
:0806AB007580AFE4FF0209862F
:10091400538E7F5389F0758A18758CFCC28DD28CE6
:05092400D2A9D2AF22B0
:0E098600EFC43354E0FFE5A0541F4FF5A0224C
:0909D00012095012067B02091401
:10047000023300000237000002390000023500009C
:08048000022F00000231000010
:0B09C5000534E53470020533020537ED
:1004D900853308853409C3E5099538FFE50895375B
:1004E900FEC3EF9405EE9400400985083785093865
:1004F9001203FDC3E509953AFFE5089539FEC3EFF7
:10050900940AEE9400400985083985093A1203785E
:10051900C3E5099536FFE5089535FEC3EF9414EE5A
:0D0529009400400985083585093612083612
:0105360022A2
:1005FF00853308853409C3E5099530FFE508952F44
:10060F00FEC3EF9464EE9400400985082F850930EE
:10061F00120974C3E5099532FFE5089531FEC3EF62
:10062F0094F4EE940140098508318509321208B01F
:01063F002298
:1004880008270000000000000000022100000223ED
:0604980000000225000037
:1003FD00AF2274272FF8E660177E007401A8070856
:10040D008005C333CE33CED8F94224EE4223801B70
:10041D007E007401A822088005C333CE33CED8F9EF
:10042D00F4FFEEF4FEEF5224EE5223E52665247020
:10043D0004E52565236015E524F4F5807F04120994
:10044D0086E4FF1209868523258524260522E522CB
:10045D0070020521AE21FF7C007D081202228C2145
:02046D008D22DE
:01046F00226A
:0C09A200A205E433FE74272FF8A60622FD
:100749003F065B4F666D7D077F6F777C395E7971F8
:100759000040761E7038375C733E783D6750376EBF
:0B076900BF86DBCFE6EDFD87FFEF460B
:0D049E00084710101010101010100146003B
:100537007580FF7F07120986E4FF120986AF46A878
:10054700077401088002C333D8FCF5807F061209BF
:1005570086E4FF12098674472546F8E69007499313
:10056700F4F5807F07120986E4FF120986054653D2
:02057700460735
:01057900225F
:1008FE008F478D488B4985104A85124B85144C8540
:06090E00164D85184E2273
:0804AB00C104011CAF011DAFEB
:10083600300405751CBF8003751CAFE51D651C6083
:1008460010851C807F05120986E4FF120986851C27
:010856001D84
:01085700227E
:05000300A20592042299
:0904B300011BC8011900011AC85F
:10037800750A0F75B00FC2C2C2C4A2C292B6A2C497
:1003880092B785B00AE519146011146059240270F7
:1003980063E50A640F605D75190122E50AB4FF027E
:1003A800804FE50A44F0F5B0D2C2D2C4A2C292B6D8
:1003B800A2C492B785B00AE50A2425601124F46026
:1003C8001224FC601324147012751A0C800D751A0F
:1003D8000D8008751A108003751A11E51AB4C80241
:1003E800800F75190222E50AB40F09851A1B751AC0
:0403F800C8E4F51947
:0103FC0022DE
:0D099400C205EFB51B05751BC8D205A205F5
:0109A1002233
:1004BC00013D00023E00D5013C00013B0001450717
:0C04CC00024300E6C103C102C100C101EF
:0B09AE00200008D2001208931208136A
:0109B900221B
:1009620075403775413B7542167B007A007940022B
:02097200071963
:10000E00E53D14606C1470030200BD24F77003020A
:10001E000106240B6003020140AE3EAF3F7C007D23
:10002E00641201CDAA06AB07AE3EAF3F7C007D64E5
:10003E001201CD7E007F0ACFCDCFCECCCE1201CD18
:10004E00EF2420F516E43EF5158A138B14750F0078
:10005E00751010751100751210AE3EAF3F7C007D0D
:10006E000A1201CD8C178D187B107A007D010201CA
:10007E0039E54575F00A84750F00F510E54575F004
:10008E000A84AFF07511008F12751300751411E507
:10009E003B75F00A84751500F516E53B75F00A847C
:1000AE00AFF07517008F187B107A007D02807CAE42
:1000BE0043AF447C007D641201CDAA06AB07AE436C
:1000CE00AF447C007D641201CD7E007F0ACFCDCF80
:1000DE00CECCCE1201CD8E178F188A158B16750FBA
:1000EE00007510107511007512107513007514102F
:1000FE007B107A007D038033750F00751010A203FC
:10010E00E433751100F512751300751410E53C7586
:10011E00F00A84751500F516E53C75F00A84AFF00B
:10012E007517008F187B067A007D117C007F1912DF
:03013E0008FE2296
:100258007F0D1209945005A202B39202E53D146085
:100268001414602624F76067240B70777F0C12093A
:10027800945070806B7F0C1209945003753D027F77
:1002880011120994505D753D0B227F0C1209945090
:1002980003E4F53D7F111209945016E5449464E592
:1002A800439400400C74F62544F54474FF3543F537
:1002B800437F10120994502BC3E54494DEE5439420
:1002C800035020740A2544F544E43543F543227F5E
:1002D8001012099450031209627F111209945003F5
:0402E800753D01223D
:10087600E53B700AE53C7006D205FF1209A2E53C8D
:0D088600D394044007C205E4FF1209A2222A
:1007EF00300314D205120003A20192057F021209F1
:1007FF00A2A201B3920122C205120003C2057F0219
:03080F001209A229
:0108120022C3
:1006E700A202B392057F011209A2300214E53B7002
:1006F70006E53C7002D203E53CD394044013C203E1
:1007070022D3E53F9544E53E95434003D20322C2F9
:020717000322BB
:100974001209AE12000E1202581208761207EF0284
:0209840006E784
:1008B0007B007A0079401205BD85403C85413B852F
:0A08C000424512057A8E3E8F3F225A
:10093D00E4FEC297EF1392A3EFC313FFD2970EBE3F
:02094D0008F0B0
:01094F002285
:10092900C29300C29700D2930012093DAF05120984
:040939003DC2932206
:1006B300E4FDC29300C29700D2930012093DE4FF08
:1006C300C297EDC313FD30A303430580D2970FBF39
:1006D30008EEC29300C29700D29700C2A300D2A330
:0306E30000AF0560
:0106E60022F1
:0C077400AB0AAA0BA90C12015AFF7E0070
:100780008E0D8F0E7C007D0A120222EFC454F0FB06
:0F079000AE0DAF0E7C007D0A120222EB2DFF2270
:09079F001206B37E00EF547FFF47
:1007A8008E0D8F0E7C007D10120222EF75F00AA4C8
:1007B800FBAE0DAF0E7C007D10120222EB2DFF2246
:10089300C293C297C2A3E4FD7F8E1209297F0A7E09
:0D08A30000120780EF547FFD7F80020929BD
:100719008B0A8A0B890C120141FF7E00120780ADFA
:10072900077F80120929900001120774AD077F82A3
:10073900120929900002120774AD077F8402092962
:1005BD008B0A8A0B890C7F8112079FAB0AAA0BA9A4
:1005CD000CEF1201877F8312079FAB0AAA0BA90CB0
:1005DD00900001EF1201997F851206B37E00EF5452
:1005ED003FFF1207A8AB0AAA0BA90C900002EF025D
:0205FD00019962
:0408CA007F057E0028
:1008CE00EF1FAA0670011E4A600BE4FDEDC3940CE7
:0508DE0050EE0D80F753
:0108E30022F2
:02085800A907EE
:10085A00E4FBC294E91392941208CAD294E9C3132E
:0C086A00F90BBB08ED7F057E000208CEF4
:1008E400E4FBC294ECC313FCD2943094034304801D
:0908F4001208CA0BBB08EBAF04AB
:0108FD0022D8
:1007C800C205D2947F0C7E001208CEC2947F507E60
:1007D800001208CED2947F0A7E001208CEA294920C
:0607E800051208CAA2057B
:0107EE0022E8
:100813001207C87FCC1208587F4E120858E4FF1203
:100823000858E4FF1208587F5F1208587F147E00AF
:030833000208CEEA
:10057A001207C87FCC1208587F441208587F647E3D
:10058A00001208CE1207C87FCC1208587FBE120884
:10059A00581208E4A9071208E4EFFEE9FF7C007D7F
:1005AA000A1201BBEEC4F854F0C868FEEFC4540F37
:0205BA0048FFF8
:0105BC00221C
:1002F8000209BAE493A3F8E493A34003F68001F259
:1003080008DFF48029E493A3F85407240CC8C33306
:10031800C4540F4420C8834004F456800146F6DFD5
:10032800E4800B0102040810204080900470E47EF1
:10033800019360BCA3FF543F30E509541FFEE493CA
:10034800A360010ECF54C025E060A840B8E493A391
:10035800FAE493A3F8E493A3C8C582C8CAC583CABC
:10036800F0A3C8C582C8CAC583CADFE9DEE780BE74
:0104D8000023
:10014100BB010689828A83E0225002E722BBFE02BC
:09015100E32289828A83E49322EF
:10015A00BB010CE58229F582E5833AF583E022505A
:10016A0006E92582F8E622BBFE06E92582F8E222A4
:0D017A00E58229F582E5833AF583E49322BE
:10018700BB010689828A83F0225002F722BBFE0157
:02019700F32251
:10019900F8BB010DE58229F582E5833AF583E8F09C
:1001A900225006E92582C8F622BBFE05E92582C848
:0201B900F22230
:1001BB00EF8DF0A4A8F0CF8CF0A428CE8DF0A42E58
:0201CB00FE2212
:1001CD00BC000BBE0029EF8DF084FFADF022E4CC16
:1001DD00F875F008EF2FFFEE33FEEC33FCEE9DECDF
:1001ED00984005FCEE9DFE0FD5F0E9E4CEFD22ED25
:1001FD00F8F5F0EE8420D21CFEADF075F008EF2F6F
:10020D00FFED33FD4007985006D5F0F222C398FD5F
:05021D000FD5F0EA22FC
:10022200C2D5EC30E709B2D5E4C39DFDE49CFCEEF7
:1002320030E715B2D5E4C39FFFE49EFE1201CDC3A1
:10024200E49DFDE49CFC80031201CD30D507C3E49C
:060252009FFFE49EFE2266
:00000001FF
