:03000000020AC42D
:0C0AC400787FE4F6D8FD758120020B0B52
:1008A100820800008206000082020000820000002F
:0808B10082040000820A00002D
:03006300020C7418
:100C7400C0E0C0F0C083C082C0D075D000C000C046
:100C840001C002C003C004C005C006C0077809E261
:100C94002401F218E23400F2120C26D007D006D058
:100CA40005D004D003D002D001D000D0D0D082D05F
:060CB40083D0F0D0E03215
:100E8C007808E2FE08E2FF7806E2FC08E2FDC3EF18
:100E9C009DFDEE9CFCC3ED9405EC9400400918EE0E
:070EAC00F208EFF2120BC384
:010EB300221C
:100A17007808E2FE08E2FF7847EEF2FE08EFF2FF01
:100A27007802E2FC08E2FDC3EF9DFFEE9CFEC3EFF8
:100A37009464EE940040107847E2FF08E27802CF12
:100A4700F208EFF21210947800E2FE08E2FF78470E
:100A5700E2FC08E2FDC39FFFEC9EFEC3EF940AEEA3
:100A67009400400A7800ECF208EDF2121153780472
:100A7700E2FE08E2FF7847E2FC08E2FDC39FFFECD5
:100A87009EFEC3EF94F4EE9401400A7804ECF2085A
:100A9700EDF2121150780AE2FE08E2FF7847E2FC15
:100AA70008E2FDC39FFFEC9EFEC3EF94E8EE9403BC
:0C0AB700400A780AECF208EDF212107F01
:010AC3002210
:0B11340012113F120E8C120A1780F8F7
:100F4B00E4F594F593F592F591F596F595F5B2F5E3
:100F5B00B1F5B4F5B3F5CAF5C9F5CCF5CBF5E2F5BA
:020F6B00E12281
:100D3E00E4FF1210F87580FF7F041210F8E4FF1222
:100D4E0010F8E4F5807F061210F8E4FF1210F87523
:100D5E0080FF7F071210F8E4FF1210F87580AF7F46
:090D6E00051210F8E4FF0210F870
:1010E600538EFB75D71875D6FC438E1043AF04D2CA
:0210F600AF2227
:1010F800AEA0EE541FFEF5A0EFC43354E04EF5A0A9
:0111080022C4
:09113F00120F4B120D3E0210E6E6
:1008B900811600811A00812F1781102D811337C1EC
:1008C9000382220000822000008226012C822B0054
:1008D90000821EFFFF5400580000000000000000C5
:1008E900000000000000000000000000822D000050
:1008F90082290000821100008224FFFF54006C004D
:1009090000000000000000000000000000000000DE
:1009190000000081280081180C8119308214000020
:10092900811700C100C101810C00810D01810E00F8
:05093900810F00C10266
:10104E00200015D200120FAA121109120F28120C2D
:08105E00BA782BEEF208EFF264
:011066002267
:100066007816E224FE700302032624F970030203C5
:10007600821460701470030201BD147003020290B2
:10008600240C6003020495782FE2FE75F00A84FFC3
:10009600EE75F00A84E5F0FD7C007810E2F975F063
:1000A6000A84FB784EE4F208EBF2E975F00A84E57F
:1000B600F0FB08E4F208EBF208E4F2087411F278B7
:1000C60013E2F975F00A84FB7854E4F208EBF2E9DE
:1000D60075F00A84E5F0FB08E4F208EBF27B117A8E
:1000E6000002037F7828E2700302018E7822E2FE86
:1000F60008E2FF7C007D6412071BC006C007782259
:10010600E2FE08E2FF7C007D6412071B7E007F0A88
:10011600CFCDCFCECCCE12071BAA06AB077820E2F6
:10012600FE08E2FF7C007D6412071B8E838F8278B7
:1001360020E2FE08E2FF7C007D6412071B7E007F42
:100146000ACFCDCFCECCCE12071BEF24207855F2A6
:10015600E43E18F27852E583F208E582F2784EEA38
:10016600F208EBF208E4F2087411F27820E2FE08D5
:10017600E2FF7C007D0A12071B7856ECF208EDF2CE
:10018600D003D0027D108028784EE4F2087410F275
:1001960008E4F2087410F208E4F2087410F208E4B5
:1001A600F2087410F208E4F2087410F2FB7A00FD0B
:1001B6007C007F0C02037F7828E2700302026178DC
:1001C6002DE2FE08E2FF7C007D6412071BC006C01C
:1001D60007782DE2FE08E2FF7C007D6412071B7E95
:1001E600007F0ACFCDCFCECCCE12071BAA06AB0717
:1001F6007829E2FE08E2FF7C007D6412071B8E83ED
:100206008F827829E2FE08E2FF7C007D6412071BDC
:100216007E007F0ACFCDCFCECCCE12071BEF242097
:100226007855F2E43E18F27852E583F208E582F258
:10023600784EEAF208EBF208E4F2087411F2782933
:10024600E2FE08E2FF7C007D0A12071B7856ECF2FC
:1002560008EDF2D003D0027D108028784EE4F20833
:100266007410F208E4F2087410F208E4F20874104C
:10027600F208E4F2087410F208E4F2087410F2FBD3
:100286007A00FD7C007F1202037F7828E2FF60532C
:1002960075F00A84FD7C00EF75F00A84E5F0FB7AC0
:1002A600007818E2F975F00A84FF784EE4F208EF58
:1002B600F2E975F00A84AFF008E4F208EFF208E418
:1002C600F2087411F27819E2F975F00A84FF78548D
:1002D600E4F208EFF2E975F00A84AFF008E4F208F8
:1002E600EF80387828E2FF75F00A84FD7C00EF7510
:1002F600F00A84E5F0FB7A00784EE4F2087410F216
:1003060008E4F2087410F208E4F2087410F208E443
:10031600F2087410F208E4F2087410F27F0F8059A4
:100326007826E2FE08E2FF7C007D6412071BAA061F
:10033600AB077826E2FE08E2FF7C007D6412071B0D
:100346007E007F0ACFCDCFCECCCE12071B7856EEDD
:10035600F208EFF27854EAF208EBF2784EE4F2088B
:100366007410F208E4F2087410F208E4F20874104B
:10037600F2FB7A00FD7C007F18020DDB7811E2FEAD
:1003860008E2FFE4FCFD7B607AEAF9F8C31207A6EF
:10039600782B7003020432E2FE08E2FF7C007D64E3
:1003A60012071BC007C006782BE2FE08E2FF7C009E
:1003B6007D6412071B7E007F0ACFCDCFCECCCE1236
:1003C600071BAA06AB077811E2FE08E2FF7C007D58
:1003D6006412071B8E838F827811E2FE08E2FF7C8F
:1003E600007D6412071B7E007F0ACFCDCFCECCCE18
:1003F60012071B7856EEF208EFF27854E583F208FE
:10040600E582F27850EAF208EBF2784ED0E0F20894
:10041600D0E0F27852E4F2087411F27B107A007D93
:10042600107C007F0E120DDBC204805EE2FE08E245
:10043600FF7C007D6412071BAA06AB07782BE2FE41
:1004460008E2FF7C007D6412071B7E007F0ACFCD89
:10045600CFCECCCE12071B7850EEF208EFF2784ED4
:10046600EAF208EBF27852E4F2087411F208E4F2C8
:1004760008740AF208E4F208740AF27B107A007D26
:10048600107C007F0E120DDBD2047F041200552271
:100B50007816E27004D2048003C204E4FF12005548
:100B60007816E2FF640A6009EF640B6004EFB40CCE
:100B700004D2048002C2047F011200557816E2B448
:100B80000904D2048002C2047F021200557828E2D0
:100B9000C394024026781EE2FE08E2FFD3782CE2DE
:100BA0009F18E29E40157824E2FE08E2FFD37812F7
:100BB000E29F18E29E4004D2048002C2047F051224
:030BC000005522BB
:0A05E6007816E2640970030206D4DF
:1005F0001207BC7849EFF2646370030206D47816E0
:10060000E224FE700302069324F8601D1460341483
:10061000604B240C60030206D47849E26404600352
:100620000206D47816740AF2227849E2FFB404056F
:1006300078167402F2EF640560030206D47816742B
:100640000BF2227849E2FFB4040578167402F2EF47
:10065000640560030206D47816740CF2227849E22D
:10066000FFB4040578167402F2EFB4050578167429
:100670000AF2EF641D705D7828F27818F208F278BB
:1006800029F208F2782DF208F27820F208F208F246
:1006900008F2227849E2FFB40404E47816F2EFB4D9
:1006A0000816C37827E294DE18E29403500A08E2A1
:1006B000240AF218E23400F27849E2B40916D37839
:1006C00027E2940018E29400400A08E224F6F218A7
:0406D000E234FFF21F
:0106D4002203
:100CFD007814E2FE08E2FFC394C8EE94004028D3B6
:100D0D00EF94D0EE9407501FEF2438FFEE34FFFE22
:100D1D007C007D141207097D2D12071BEF246478CA
:100D2D0012F2E43E18F222781174EAF2087460F2BD
:010D3D002293
:100EB4007826E2FE08E2FFD3782CE29F18E29E40F7
:100EC4000FA20192047F03120055A201B3920122E2
:070ED400C2047F0312005568
:010EDB0022F4
:100FC7007BFE7A00791B120003781BE27813F27814
:0C0FD7001CE27810F2781DE2782FF22264
:08114800120E617817EFF2228C
:10049600782BE2FE08E2FF780CE2FD25E02458F511
:1004A60082E43400F583EEF0A3EFF07811E2FE0863
:1004B600E2FFED25E0246CF582E43400F583EEF0EE
:1004C600A3EFF0780CE204F2E2B40A02E4F2900040
:1004D6005AE0FEA3E0FF900059E02FFF900058E09D
:1004E6003EFE90005DE02FFF90005CE03EFE900037
:1004F6005FE02FFF90005EE03EFE900061E02FFF80
:10050600900060E03EFE900063E02FFF900062E006
:100516003EFE900065E02FFF900064E03EFE9000F6
:1005260067E02FFF900066E03EFE900069E02FFF37
:10053600900068E03EFE90006BE02FFF90006AE0BE
:100546003EFE780DE2FBFD7C0012071B7820EEF2E2
:1005560008EFF290006EE0FEA3E0FF90006DE02F42
:10056600FF90006CE03EFE900071E02FFF9000705F
:10057600E03EFE900073E02FFF900072E03EFE909A
:100586000075E02FFF900074E03EFE900077E02FAC
:10059600FF900076E03EFE900079E02FFF90007815
:1005A600E03EFE90007BE02FFF90007AE03EFE905A
:1005B600007DE02FFF90007CE03EFE90007FE02F64
:1005C600FF90007EE03EFEAD037C0012071B7829FB
:0F05D600EEF208EFF2780DE2640A6003E204F23D
:0105E50022F3
:10095F00780EE21470030209F8147003020A0824D7
:10096F00026003020A16200303020A16120CBA7859
:10097F002BEEF208EFF2120CFD7816E2781AF278ED
:10098F00167409F2780E7401F27811E2FE08E2FF94
:10099F00E4FCFD7B607AEAF9F8C31207A660687879
:1009AF002FE27818F27810E27819F27828E204F240
:1009BF007822E2FE08E2FF782BE2FC08E2FDD39FEB
:1009CF00EC9E40077822ECF208EDF2782DE2FE085B
:1009DF00E2FF7811E2FC08E2FDD39FEC9E4007781E
:1009EF002DECF208EDF2020496780FE204F2E2C366
:1009FF00941D4013187402F222E4780EF208F27874
:070A0F001AE27816F2C2039F
:010A160022BD
:100FE3002003187817E2FFC394324002D202300282
:0B0FF3000AEFC394145004C202D203A2
:010FFE0022D0
:10107F00C28CAF8CEFAD8A7814F2ED08F2E4F58CE8
:05108F00F58AD28C225D
:1010940012104E120066121148120B50120EB412A6
:0510A4000FE302095FEB
:03115000020FC7C4
:031153000205E6AC
:10093E00883300000000000000008130008131008B
:03094E00813200F3
:100BC3007830E22433F8E260197830E2FF04F2A8C7
:100BD300077401088002C333D8FCFF7832E24FF276
:100BE30080187830E2FF04F2A8077401088002C37A
:100BF30033D8FCF4FF7832E25FF27830E2C3940832
:100C03004002E4F27832E2FF18E26F60157F0412CB
:100C130010F87832E2F4F580E4FF1210F87832E24B
:020C230018F2C5
:010C250022AC
:0C005500A204E433FE74332FF8EEF22214
:100E36003F065B4F666D7D077F6F777C395E797104
:100E46000040761E7038375C733E783D6750376ECB
:0B0E5600BF86DBCFE6EDFD87FFEF4617
:0D095100883C1010101010101010813B0099
:100C26007580FF7F071210F8E4FF1210F8783BE298
:100C3600FFF87401088002C333D8FCF5807F0612E2
:100C460010F8E4FF1210F8783BE2FF04F2743C2F30
:100C5600F8E2900E3693F4F5807F071210F8E4FF61
:0D0C66001210F8783BE2C394084002E4F25B
:010C7300225E
:100DDB00783CEFF208EDF208EBF2784E08E2783F40
:100DEB00F2785008E27840F2785208E27841F278D3
:0E0DFB005408E27842F2785608E27843F22279
:1007BC00784A74FFF2087463F275B00FC2C2C2C4F7
:1007CC00A2C292B6A2C492B7E5B0540F18F2784404
:1007DC00E21460221460781470030208872403600A
:1007EC000302089C784AE2640F700302089C784468
:1007FC007401F202089C784AE2FFB40F02804AEFBF
:10080C0044F0F5B0D2C2D2C4A2C292B6A2C492B77E
:10081C00784AE5B0F278447402F2784AE2248560B2
:10082C001324C4601624FC60192444701C7845748D
:10083C0004F2805C78457405F2805578457408F2B2
:10084C00804E78457409F28047E47844F280417810
:10085C004AE2640F60147846E204F2E2D3946440F6
:10086C002FE4F278447403F28026E47844F208E230
:10087C00784BF2E47845F208F28015784AE2B40F2E
:10088C000FE47844F208E22414784BF2E47845F251
:04089C00784BE2FFB4
:0108A0002235
:1010BE00E4FEC297EF1392A3EFC313FFD2970EEE87
:0310CE00B408EF74
:0110D10022FC
:1010D200C29300C29700D293001210BEAF05121045
:0410E200BEC29322D5
:100D7700E4FDC29300C29700D293001210BEE4FFB5
:100D8700C297EDC313FD30A3034480FDD2970FEF45
:100D9700B408EDC29300C29700D29700C2A300D255
:040DA700A300AF05F1
:010DAB002225
:100F03007849EEF208EFF27C007D0A120770EFC415
:100F130054F0FB7849E2FE08E2FF7C007D0A1207E9
:050F230070EB2DFF2220
:090DAC00120D777E00EF547FFF69
:100DB500784CEEF208EFF27C007D10120770EF75AB
:100DC500F00AA4FB784CE2FE08E2FF7C007D1012DD
:060DD5000770EB2DFF2268
:100FAA00C293C297C2A3E4FD7F8E1210D27F0A7E3B
:0D0FBA0000120F03EF547FFD7F800210D264
:100003007849EBF208EAF208E9F27F81120DAC7845
:1000130049E2FB08E2FA08E2F9EF1206D57F831200
:100023000DAC7849E2FB08E2FA08E2F9900001EF2F
:100033001206E77F85120D777E00EF543FFF120D06
:10004300B57849E2FB08E2FA08E2F9900002EF0210
:0200530006E7BE
:10110900538E7F438904E4F58AF58CC28DD28C22F3
:04101A00D2A07F0AD7
:10101E00000000000000000000000000000000AE14
:06102E00071FEE70EB222B
:0F111900D2A112101AC2A17F0A12101EC2A02268
:0C112800C2A112101AD2A17F0A02101EF0
:020E0900AD0733
:100E0B00E4FCC2A07F0A12101EED30E704D2A180D1
:100E1B0002C2A17F0A12101ED2A0ED25E0FD7F0AAF
:0A0E2B0012101E0CECB408DAC2A08D
:010E3500229A
:100F8C00E4FC12101AED25E0FD30A1034401FDC272
:0D0F9C00A07F0A12101E0CECB408E7AF0590
:010FA9002225
:0310A900120E091B
:1010AC0012101AA2A1E433FDC2A07F0A12101EAFC7
:0110BC00052E
:0110BD002210
:10106700C2A0EF24FF92A17F0A12101E12101AC20B
:08107700A0D2A17F0A02101EA5
:100E61001211197F901210A97F011210A9121128D5
:100E71001211197F91120E091210AC120F8CAD07CD
:0A0E81007F01121067121128AF055F
:010E8B002244
:041034007F057E00B6
:10103800EF1FAA0670011E4A600BE4FDEDC3940C75
:0510480050EE0D80F7E1
:01104D002280
:020F6D00A907D2
:100F6F00E4FBC294E9139294121034D294E9C313A0
:0D0F7F00F90BEBB408EC7F057E0002103882
:100FFF00E4FBC294ECC313FCD2943094034480FC02
:0A100F001210340BEBB408EAAF0432
:0110190022B4
:100EDC00C204D2947F0C7E00121038C2947F507ED4
:100EEC0000121038D2947F0A7E00121038A294920D
:060EFC0004121034A204F0
:010F020022CC
:100F2800120EDC7FCC120F6D7F4E120F6DE4FF1294
:100F38000F6DE4FF120F6D7F5F120F6D7F147E003F
:030F48000210385C
:100CBA00120EDC7FCC120F6D7F44120F6D7F647EA3
:100CCA0000121038120EDC7FCC120F6D7FBE120F8D
:100CDA006D120FFFA907120FFFEFFEE9FF7C007DDF
:100CEA000A120709EEC4F854F0C868FEEFC4540F9C
:020CFA0048FFB1
:010CFC0022D5
:100AD000021134E493A3F8E493A34003F68001F2F7
:100AE00008DFF48029E493A3F85407240CC8C33327
:100AF000C4540F4420C8834004F456800146F6DFF6
:100B0000E4800B01020408102040809008A1E47EDC
:100B1000019360BCA3FF543F30E509541FFEE493EA
:100B2000A360010ECF54C025E060A840B8E493A3B1
:100B3000FAE493A3F8E493A3C8C582C8CAC583CADC
:100B4000F0A3C8C582C8CAC583CADFE9DEE780BE94
:01095E000098
:1006D500BB010689828A83F0225002F722BBFE0104
:0206E500F322FE
:1006E700F8BB010DE58229F582E5833AF583E8F049
:1006F700225006E92582C8F622BBFE05E92582C8F5
:02070700F222DC
:10070900EF8DF0A4A8F0CF8CF0A428CE8DF0A42E04
:02071900FE22BE
:10071B00BC000BBE0029EF8DF084FFADF022E4CCC2
:10072B00F875F008EF2FFFEE33FEEC33FCEE9DEC8B
:10073B00984005FCEE9DFE0FD5F0E9E4CEFD22EDD1
:10074B00F8F5F0EE8420D21CFEADF075F008EF2F1B
:10075B00FFED33FD4007985006D5F0F222C398FD0C
:05076B000FD5F0EA22A9
:10077000C2D5EC30E709B2D5E4C39DFDE49CFCEEA4
:1007800030E715B2D5E4C39FFFE49EFE12071BC3FA
:10079000E49DFDE49CFC800312071B30D507C3E4F5
:0607A0009FFFE49EFE2213
:1007A600EB9FF5F0EA9E42F0E99D42F0EC6480C8CA
:0607B60064809845F0226A
:00000001FF
