:030000000202F009
:0C02F000787FE4F6D8FD75814E020337DC
:10047400013D00023E00D5013C00013B000145075F
:0C048400024300E6C103C102C100C10137
:0B09A700200008D20012089712081769
:0109B2002222
:1009540075403775413B7542167B007A0079400239
:02096400071D6D
:10000E00E53D14606C1470030200BD24F77003020A
:10001E00010A240B6003020144AE3EAF3F7C007D1B
:10002E00641201D1AA06AB07AE3EAF3F7C007D64E1
:10003E001201D17E007F0ACFCDCFCECCCE1201D110
:10004E00EF2420F516E43EF5158A138B14750F0078
:10005E00751010751100751210AE3EAF3F7C007D0D
:10006E000A1201D18C178D187B107A007D010201C6
:10007E0004E54575F00A84750F00F510E54575F039
:10008E000A84AFF07511008F12751300751411E507
:10009E003B75F00A84751500F516E53B75F00A847C
:1000AE00AFF07517008F187B107A007D028047AE77
:1000BE0043AF447C007D641201D1AA06AB07AE4368
:1000CE00AF447C007D641201D17E007F0ACFCDCF7C
:1000DE00CECCCE1201D18E178F188A158B16750FB6
:1000EE00007510107511007512107513007514102F
:1000FE007B107A007D037C007F198037A203E433E6
:10010E00FF750F0075101075110075121075130024
:10011E00751410E53C75F00A84751500F516E53C6E
:10012E0075F00A84E5F0751700F5187B107A007DDE
:07013E00107C0012090222EF
:10025C007F0D12098A5005A202B39202E53D14608B
:10026C001414602624F76067240B70777F0C120936
:10027C008A5070806B7F0C12098A5003753D027F87
:10028C001112098A505D753D0B227F0C12098A50A0
:10029C0003E4F53D7F1112098A5016E5449464E598
:1002AC00439400400C74F62544F54474FF3543F533
:1002BC00437F1012098A502BC3E54494DEE5439426
:1002CC00035020740A2544F544E43543F543227F5A
:1002DC001012098A50031209547F1112098A500313
:0402EC00753D012239
:10087A00E53B700AE53C7006D205FF1209B3E53C78
:0D088A00D394044007C205E4FF1209B32215
:1007F300300314D205120003A20192057F021209ED
:10080300B3A201B3920122C205120003C2057F0203
:030813001209B314
:0108160022BF
:1006EB00A202B392057F011209B3300214E53B70ED
:1006FB0006E53C7002D203E53CD394044013C203DD
:10070B0022D3E53F9544E53E95434003D20322C2F5
:02071B000322B7
:100966001209A712000E12025C12087A1207F3028D
:0209760006EB8E
:1008B4007B007A0079401205C185403C85413B8527
:0A08C400424512057E8E3E8F3F2252
:09049000011BC8011900011A004A
:10037C00750A0F75B00FC2C2C2C4A2C292B6A2C493
:10038C0092B785B00AE519146011146059240270F3
:10039C0063E50A640F605D75190122E50AB40F026A
:1003AC00804FE50A44F0F5B0D2C2D2C4A2C292B6D4
:1003BC00A2C492B785B00AE50A2425601124F46022
:1003CC001224FC601324147012751A0C800D751A0B
:1003DC000D8008751A108003751A11E51AB4C8023D
:1003EC00800F75190222E50AB40F09851A1B751ABC
:0403FC00C8E4F51943
:0104000022D9
:0E098A00C205E51BB50705D205751BC8A20501
:01099800223C
:1004990008270000000000000000022100000223DC
:0604A90000000225000026
:10040100AF2274272FF8E660177E007401A8070851
:100411008005C333CE33CED8F94224EE4223801B6C
:100421007E007401A822088005C333CE33CED8F9EB
:10043100F4FFEEF4FEEF5224EE5223E5266524701C
:1004410004E52565236015E524F4F5807F04120990
:1004510099E4FF1209998523258524260522E522A1
:1004610070020521AE21FF7C007D081202268C213D
:020471008D22DA
:010473002266
:0C09B300A205E433FE74272FF8A60622EC
:0804AF00C104011CAF011DAFE7
:10083A00300405751CBF8003751CAFE51D651C607F
:10084A0010851C807F05120999E4FF120999851CFD
:01085A001D80
:01085B00227A
:05000300A20592042299
:10094100E4FEC297EF1392A3EFC313FFD2970EBE3B
:0209510008F0AC
:010953002281
:10092D00C29300C29700D29300120941AF0512097C
:04093D0041C29322FE
:1006B700E4FDC29300C29700D29300120941E4FF00
:1006C700C297EDC313FD30A303430580D2970FBF35
:1006D70008EEC29300C29700D29700C2A300D2A32C
:0306E70000AF055C
:0106EA0022ED
:0C074D00AB0AAA0BA90C12015EFF7E0093
:100759008E0D8F0E7C007D0A120226EFC454F0FB29
:0F076900AE0DAF0E7C007D0A120226EB2DFF2293
:0907A3001206B77E00EF547FFF3F
:1007AC008E0D8F0E7C007D10120226EF75F00AA4C0
:1007BC00FBAE0DAF0E7C007D10120226EB2DFF223E
:10089700C293C297C2A3E4FD7F8E12092D7F0A7E01
:0D08A70000120759EF547FFD7F8002092DDC
:10071D008B0A8A0B890C120145FF7E00120759AD19
:10072D00077F8012092D90000112074DAD077F82C2
:10073D0012092D90000212074DAD077F8402092D7D
:1005C1008B0A8A0B890C7F811207A3AB0AAA0BA99C
:1005D1000CEF12018B7F831207A3AB0AAA0BA90CA4
:1005E100900001EF12019D7F851206B77E00EF5446
:1005F1003FFF1207ACAB0AAA0BA90C900002EF0255
:02060100019D59
:100778003F065B4F666D7D077F6F777C395E7971C9
:100788000040761E7038375C733E783D6750376E90
:0B079800BF86DBCFE6EDFD87FFEF46DC
:0D04B7000847101010101010101001460022
:10053B007580FF7F07120999E4FF120999AF46A84E
:10054B00077401088002C333D8FCF5807F061209BB
:10055B0099E4FF12099974472546F8E690077893BA
:10056B00F4F5807F07120999E4FF120999054653A8
:02057B00460731
:01057D00225B
:100902008F478D488B4985104A85124B85144C853B
:06091200164D85184E226F
:1004C4000233000002370000023900000235000048
:0804D400022F000002310000BC
:0B09BF000534E5347002053302053BEF
:1004DD00853308853409C3E5099538FFE508953757
:1004ED00FEC3EF9405EE9400400985083785093861
:1004FD00120401C3E509953AFFE5089539FEC3EFEE
:10050D00940AEE9400400985083985093A12037C56
:10051D00C3E5099536FFE5089535FEC3EF9414EE56
:0D052D009400400985083585093612083A0A
:01053A00229E
:10060300853308853409C3E5099530FFE508952F3F
:10061300FEC3EF9464EE9400400985082F850930EA
:10062300120966C3E5099532FFE5089531FEC3EF6C
:1006330094F4EE940140098508318509321208B417
:010643002294
:10097800E4F594F593F592F591F596F595F5B2F5BC
:02098800B1229A
:10067F00E4FF1209997F041209997580FFE4FF12B4
:10068F0009997F06120999E4F580FF1209997F07EE
:10069F001209997580FFE4FF1209997F05120999D4
:0806AF007580AFE4FF02099918
:10091800538E7F5389F0758A18758CFCC28DD28CE2
:05092800D2A9D2AF22AC
:0E099900EFC43354E0FFE5A0541F4FF5A02239
:0909D50012097812067F020918CC
:03000B00020644A6
:10064400C0E0C0F0C083C082C0D075D000C000C07C
:1006540001C002C003C004C005C006C0071209BF20
:10066400D007D006D005D004D003D002D001D000EA
:0B067400D0D0D082D083D0F0D0E03294
:0B09CA001209D51204DD12060380F8AC
:0408CE007F057E0024
:1008D200EF1FAA0670011E4A600BE4FDEDC3940CE3
:0508E20050EE0D80F74F
:0108E70022EE
:02085C00A907EA
:10085E00E4FBC294E91392941208CED294E9C31326
:0C086E00F90BBB08ED7F057E000208D2EC
:1008E800E4FBC294ECC313FCD29430940343048019
:0908F8001208CE0BBB08EBAF04A3
:0109010022D3
:1007CC00C205D2947F0C7E001208D2C2947F507E58
:1007DC00001208D2D2947F0A7E001208D2A2949200
:0607EC00051208CEA20573
:0107F20022E4
:100817001207CC7FCC12085C7F4E12085CE4FF12F3
:10082700085CE4FF12085C7F5F12085C7F147E009F
:030837000208D2E2
:10057E001207CC7FCC12085C7F4412085C7F647E2D
:10058E00001208D21207CC7FCC12085C7FBE120874
:10059E005C1208E8A9071208E8EFFEE9FF7C007D6F
:1005AE000A1201BFEEC4F854F0C868FEEFC4540F2F
:0205BE0048FFF4
:0105C0002218
:1002FC000209CAE493A3F8E493A34003F68001F245
:10030C0008DFF48029E493A3F85407240CC8C33302
:10031C00C4540F4420C8834004F456800146F6DFD1
:10032C00E4800B0102040810204080900474E47EE9
:10033C00019360BCA3FF543F30E509541FFEE493C6
:10034C00A360010ECF54C025E060A840B8E493A38D
:10035C00FAE493A3F8E493A3C8C582C8CAC583CAB8
:10036C00F0A3C8C582C8CAC583CADFE9DEE780BE70
:0104DC00001F
:10014500BB010689828A83E0225002E722BBFE02B8
:09015500E32289828A83E49322EB
:10015E00BB010CE58229F582E5833AF583E0225056
:10016E0006E92582F8E622BBFE06E92582F8E222A0
:0D017E00E58229F582E5833AF583E49322BA
:10018B00BB010689828A83F0225002F722BBFE0153
:02019B00F3224D
:10019D00F8BB010DE58229F582E5833AF583E8F098
:1001AD00225006E92582C8F622BBFE05E92582C844
:0201BD00F2222C
:1001BF00EF8DF0A4A8F0CF8CF0A428CE8DF0A42E54
:0201CF00FE220E
:1001D100BC000BBE0029EF8DF084FFADF022E4CC12
:1001E100F875F008EF2FFFEE33FEEC33FCEE9DECDB
:1001F100984005FCEE9DFE0FD5F0E9E4CEFD22ED21
:10020100F8F5F0EE8420D21CFEADF075F008EF2F6A
:10021100FFED33FD4007985006D5F0F222C398FD5B
:050221000FD5F0EA22F8
:10022600C2D5EC30E709B2D5E4C39DFDE49CFCEEF3
:1002360030E715B2D5E4C39FFFE49EFE1201D1C399
:10024600E49DFDE49CFC80031201D130D507C3E494
:060256009FFFE49EFE2262
:00000001FF
