:030000000202B940
:0C02B900787FE4F6D8FD75816C0203002C
:03000B0002063FAB
:10063F00C0E0C0F0C083C082C0D075D000C000C081
:10064F0001C002C003C004C005C006C0071208FDE8
:10065F00D007D006D005D004D003D002D001D000EF
:0B066F00D0D0D082D083D0F0D0E03299
:0B08F2001209081204EA12076E80F8D9
:10088A00E4F594F593F592F591F596F595F5B2F5AB
:02089A00B12289
:10074D007F041208BD7580FF7F061208BDE4F58099
:10075D007F071208BD7580FF7F051208BD7580AF3C
:01076D002269
:10083B00438E805389F0758A20758CD1C28DD28CF2
:05084B00D2A9D2AF228A
:0E08BD00EFC43354E0FFE5A0541F4FF5A02216
:0909080012088A12074D02083B97
:1004890002300000023A0000023C0000023800007D
:0C049900023200000234000002360000B5
:0B08FD000531E531700205300205F402
:1004EA00853066853167C3E567953BFFE566953AD2
:1004FA00FEC3EF9405EE9400400985663A85673B92
:10050A001205A4C3E567953DFFE566953CFEC3EF7A
:10051A00940AEE9400400985663C85673D12000EF8
:10052A00C3E5679539FFE5669538FEC3EF9414EE87
:0D053A00940040098566388567391206D99E
:010547002291
:10076E00AF31AE30C3EF9533FDEE9532FCC3ED9451
:0D077E0064EC940040078E328F3312042784
:01078B00224B
:1004A50008410000000000000000013E00013F007F
:0304B50001400003
:1005A4007441253EF8E66013AF3E053EA80774018A
:1005B400088002C333D8FC42408012AF3E053EA8F7
:1005C400077401088002C333D8FCF45240E53EC3EB
:1005D40094084003E4F53EE53F654060127F041251
:0F05E40008BDE540F4F580E4FF1208BD85403FF7
:0105F30022E5
:0C08E600A201E433FE74412FF8A60622A4
:10089C00E4F541F542F543F544F545F546F547F5E4
:0208AC004822E0
:10080F008F418D428B43850E448510458512468559
:06081F0014478516482273
:0800030074412FF8E624FF22EE
:1006AE003F065B4F666D7D077F6F777C395E797194
:1006BE000040761E7038375C733E783D6750376E5B
:0B06CE00BF86DBCFE6EDFD87FFEF46A7
:0D04B800081810101010101010100117007F
:0709110074182FF8A605225F
:1005F4007580FF7F071208BDE4FF1208BDAF17A87E
:10060400077401088002C333D8FCF5807F06120802
:10061400BDE4FF1208BDAF17051774182FF8E69054
:1006240006AE93F4F5807F071208BDE4FF1208BDFF
:0A063400E517C394084003E4F5172E
:01063E002299
:1007DF00751810751910751A10751B10751C10757A
:0907EF001D10751E10751F10226B
:100825008F188D198B1A85271B85291C852B1D85EE
:060835002D1E852F1F227D
:0F04C5000165C80164C8016100016200016300A4
:10000E007568FF7569C975B00FC2C2C2C4A2C2922B
:10001E00B6A2C492B7E5B0540FF568E56114602539
:10002E0014700302011D14700302015124036003B6
:10003E00020172E568640F60067561010201727556
:10004E0064C8020172E568B40F06E4F5610201723C
:10005E00E56844F0F5B0D2C2D2C4A2C292B6A2C430
:10006E0092B785B068E56812023E00BE7700C37B8A
:10007E0000C87D00CD7E00D2B700D7BB00DCBD002E
:10008E00E1BE00E6D700EBDB00F0DD00F5DE00FAA6
:10009E00E700FFEB0104ED0109EE00B8F700BAFB33
:1000AE0000BCFD00CDFE0000010E80048007800A1A
:1000BE007563048052756305804D756306804875BF
:1000CE0063078043756308803E75630980397563E5
:1000DE000A803475630B802F75630C802A75630D4F
:1000EE00802575630E802075630F801B75631080ED
:1000FE00167563118011756312800C75631380077A
:10010E00E4F5617563C92285636475610280557576
:10011E00B00FC2C2C2C4A2C292B6A2C492B7E5B018
:10012E00540FF568640F60110562E562D394464082
:10013E0033E4F562756103802BE4F562F561856346
:10014E0069802175B00FC2C2C2C4A2C292B6A2C447
:10015E0092B7E5B0540FF568B40F09E4F561E563A5
:0D016E002464F569E56964C960038569656D
:01017B002261
:05092D00AF657565C90E
:0109320022A2
:03093300AF64228C
:10086400C201E565B50709E4B50605D2017565C998
:02087400A201DF
:01087600225F
:0704D400026B0000016AAF9A
:1006D900E4F568E56B6003436810E56C6003436803
:1006E90040E56A656860107F051208BD856880E489
:0706F900FF1208BD85686ACD
:0107000022D6
:07091800A201E433F56B229C
:07091F00A201E433F56C2294
:100427007F047E001208645005D2011209187F0567
:100437007E001208645005C2011209187F067E006B
:100447001208645005D20112091F7F077E001208A7
:10045700645005C20112091FE4FF120003B39201A1
:10046700E4FF1208E6120933EF75F00A84FD7F06F0
:10047700120911120933EF75F00A84ADF07F0702F4
:02048700091159
:0407C5007F057E002E
:1007C900EF1FAA0670011E4A600BE4FDEDC3940CED
:0507D90050EE0D80F759
:0107DE0022F8
:02078C00A907BB
:10078E00E4FBC294E91392941207C5D294E9C31301
:0C079E00F90BBB08ED7F057E000207C9C7
:1007AA00E4FCFBC294ECC313FCD2943094034304DC
:0A07BA00801207C50BBB08EBAF046B
:0107C4002212
:10070100C200D2947F0C7E001207C9C2947F507E32
:10071100001207C9D2947F0A7E001207C9A29492DF
:06072100001207C5A20052
:0107270022AF
:10072800AC071207017FCC12078C7F4E12078CE4AE
:10073800FF12078CE4FF12078CAF0412078C7F149A
:050748007E000207C95C
:0D08D9001207015001227F5F120728C32281
:1003BD001207017FCC12078C7F4412078C7F647E5D
:1003CD00001207C91207017FCC12078C7FBE1207DE
:1003DD008C1207AAA9071207AAEFFEE9FFEE30E774
:1003ED0024EFF4FFEEF4FEEF2401FFE43EFE7C006B
:1003FD007D0A1201F67D10120208C3E49FF582E416
:10040D009EF58380107C007D0A1201F67D1012028C
:09041D00088E838F82AF82AE834A
:0104260022B3
:0E08CB0080828486888A8C81838587898B8DC4
:0E04DB0003500000000749505923090403256F
:10087700E4FEC297EF1392A3EFC313FFD2970EBE06
:0208870008F077
:01088900224C
:10085000C29300C29700D29300120877AF05120826
:0408600077C29322A6
:10067A00E4FDC29300C29700D29300120877E4FF08
:10068A00C297EDC313FD30A303430580D2970FBF72
:10069A0008EEC29300C29700D29700C2A300D2A369
:0306AA0000AF0599
:0106AD00222A
:0407F800120195FF56
:1007FC00EF75F00A84C454F0FEEF75F00A84EE2510
:03080C00F0FF22D8
:0F08AE00EFC4540F75F00AA4FEEF540F2EFF2273
:07092600C293C297C2A32295
:100548009000061207F88F539000051207F88F5491
:100558009000041207F88F559000021207F88F5682
:100568009000011207F88F579000031207F88F5870
:1005780012017CFF1207FC8F59E4FD7F8E12085090
:10058800E4FCEC9008CB93FF74532CF8E6FD1208BA
:0C059800500CBC07ED7D807F8E020850E7
:10034500E4FCEC9008D293FF12067A745A2CF8A6B6
:10035500070CBC07EDE55A547FFF1208AE90000666
:10036500EF1201D4E55B547FFF1208AE900005EF54
:100375001201D4E55C543FFF1208AE900004EF1261
:1003850001D4E55D543FFF1208AE900002EF120163
:10039500D4E55E541FFF1208AE900001EF1201D4A0
:1003A500E55F5407FF1208AE900003EF1201D4AFCA
:0803B500601208AEEF0201C264
:1002C5000208F2E493A3F8E493A34003F68001F255
:1002D50008DFF48029E493A3F85407240CC8C3333A
:1002E500C4540F4420C8834004F456800146F6DF09
:1002F500E4800B0102040810204080900489E47E0C
:10030500019360BCA3FF543F30E509541FFEE493FD
:10031500A360010ECF54C025E060A840B8E493A3C4
:10032500FAE493A3F8E493A3C8C582C8CAC583CAEF
:10033500F0A3C8C582C8CAC583CADFE9DEE780BEA7
:0104E9000012
:10017C00BB010689828A83E0225002E722BBFE0281
:09018C00E32289828A83E49322B4
:10019500BB010CE58229F582E5833AF583E022501F
:1001A50006E92582F8E622BBFE06E92582F8E22269
:0D01B500E58229F582E5833AF583E4932283
:1001C200BB010689828A83F0225002F722BBFE011C
:0201D200F32216
:1001D400F8BB010DE58229F582E5833AF583E8F061
:1001E400225006E92582C8F622BBFE05E92582C80D
:0201F400F222F5
:1001F600EF8DF0A4A8F0CF8CF0A428CE8DF0A42E1D
:02020600FE22D6
:10020800C2D5EC30E709B2D5E4C39DFDE49CFCEE11
:1002180030E715B2D5E4C39FFFE49EFE120264C323
:10022800E49DFDE49CFC800312026430D507C3E41E
:060238009FFFE49EFE2280
:10023E00D083D082F8E4937012740193700DA3A34F
:10024E0093F8740193F5828883E473740293686063
:06025E00EFA3A3A380DF63
:10026400BC000BBE0029EF8DF084FFADF022E4CC7E
:10027400F875F008EF2FFFEE33FEEC33FCEE9DEC47
:10028400984005FCEE9DFE0FD5F0E9E4CEFD22ED8D
:10029400F8F5F0EE8420D21CFEADF075F008EF2FD7
:1002A400FFED33FD4007985006D5F0F222C398FDC8
:0502B4000FD5F0EA2265
:00000001FF
