:030000000201807A
:0C018000787FE4F6D8FD7581470201C7C6
:03001B0002047468
:10047400C0E0C0F0C083C082C0D075D000C000C04E
:1004840001C002C003C004C005C006C00712055362
:10049400D007D006D005D004D003D002D001D000BC
:0B04A400D0D0D082D083D0F0D0E03266
:0B05F4001205B412020C1202E880F89D
:100346000824000000000000000001210001220036
:0303560001230080
:10039D0074242521F8E66013AF210521A807740107
:1003AD00088002C333D8FC42238012AF210521A857
:1003BD00077401088002C333D8FCF45223E521C32E
:1003CD0094084003E4F521E522652360127F0412B1
:0F03DD0005C2E523F4F580E4FF1205C285232253
:0103EC0022EE
:0C05D000A200E433FE74242FF8A60622DB
:1005A200E4F524F525F526F527F528F529F52AF5AC
:0205B2002B22FA
:1004DE003F065B4F666D7D077F6F777C395E797166
:1004EE000040761E7038375C733E783D6750376E2D
:0B04FE00BF86DBCFE6EDFD87FFEF4679
:0D03590008181010101010101010011700DF
:0705FF0074182FF8A6052275
:1003ED007580FF7F071205C2E4FF1205C2AF17A883
:1003FD00077401088002C333D8FCF5807F0612050F
:10040D00C2E4FF1205C2AF17051774182FF8E69056
:10041D0004DE93F4F5807F071205C2E4FF1205C2D6
:0A042D00E517C394084003E4F51737
:0104370022A2
:10057400751810751910751A10751B10751C1075E7
:090584001D10751E10751F1022D8
:100003008F188D198B1A850E1B85101C85121D8563
:06001300141E85161F22D9
:0C036600013FC8013C00013D00013E00C9
:10001E007542FF7543C975B00FC2C2C2C4A2C29267
:10002E00B6A2C492B7E5B0540FF542E53C14602277
:10003E0014700302012714700302015B2403600392
:10004E0002017CE542640F700302017C753C0102E3
:10005E00017CE542B40F06E4F53C02017CE5424426
:10006E00F0F5B0D2C2D2C4A2C292B6A2C492B785E3
:10007E00B042E54212044E00CB7700D07B00D57D16
:10008E0000DA7E00DFB700E4BB00E9BD00EEBE0083
:10009E00F3D700F8DB00FDDD0102DE0107E7010CFE
:1000AE00EB0111ED0116EE00C5F700C7FB00C9FD0F
:1000BE0000DAFE0000011B80048007800A753E04F2
:1000CE008052753E05804D753E068048753E078010
:1000DE0043753E08803E753E098039753E0A803470
:1000EE00753E0B802F753E0C802A753E0D80257552
:1000FE003E0E8020753E0F801B753E108016753E9D
:10010E00118011753E12800C753E138007E4F53C8C
:10011E00753EC922753C02805575B00FC2C2C2C46D
:10012E00A2C292B6A2C492B7E5B0540FF542640FC4
:10013E006011053DE53DD394464033E4F53D753CF5
:10014E0003802BE4F53DF53C853E43802175B00FD1
:10015E00C2C2C2C4A2C292B6A2C492B7E5B0540F34
:10016E00F542B40F09E4F53CE53E2464F5438543BE
:01017E003F41
:01017F00225D
:05060600AF3F753FC984
:01060B0022CC
:0703720002450000014400F8
:0C05DC00EF60047F0180027F008F452249
:0C05E800EF60047F0180027F008F46223C
:10050900E4F542E5456003434210E5466003434292
:1005190040E544654260107F051205C2854280E4CA
:07052900FF1205C2854244E8
:0105300022A8
:10053100E4F594F593F592F591F596F595F5B2F507
:10054100B1F5B4F5B3F5CAF5C9F5CCF5CBF5E2F5DE
:02055100E122A5
:10058D00538EBF53890F758B18758DFCC28FD28E0C
:05059D00D2ABD2AF2239
:1004AF007F041205C27580FFE4FF1205C27F06129A
:1004BF0005C2E4F5807F071205C27580FFE4FF12C5
:0F04CF0005C27F051205C27580AFE4FF0205C2AA
:0E05B400120531E4FF1205C21204AF02058DDC
:0E05C200EFC43354E0FFE5A0541F4FF5A02214
:10037900022C0000023200000230000002340000AA
:04038900022E000040
:10055300052DE52D7002052CAE2CAF2DE4FCFD7BA3
:10056300607AEAF9F8D31204385005E4F52CF52D36
:010573002265
:10020C00852C40852D41C3E5419533FFE540953262
:10021C00FEC3EF9402EE94004009854032854133D1
:10022C001203EDC3E5419531FFE5409530FEC3EF78
:10023C009405EE9400400985403085413112039DB0
:10024C00C3E5419535FFE5409534FEC3EF940AEEC6
:10025C009400400985403485413512001EC3E541A8
:10026C00952FFFE540952EFEC3EF9432EE9400409F
:0A027C000985402E85412F12050967
:010286002255
:0C038D00023A00000236000002380000B6
:0100190022C4
:03060C0002028760
:01001A0022C3
:1002E800852C40852D41C3E541953BFFE540953A76
:1002F800FEC3EF940AEE9400400985403A85413BDD
:10030800120019C3E5419537FFE5409536FEC3EF66
:100318009464EE9400400985403685413712060CF6
:10032800C3E5419539FFE5409538FEC3EF94E8EE03
:0D0338009403400985403885413912001AB0
:010345002295
:0303990001470019
:10028700E547C394085022E54775F00A84FDE4FF6B
:100297001205FFE54775F00A84ADF07F011205FFEF
:1002A700AF470547D2001205D0E547C3940840265B
:1002B700E54775F00A84FDE4FF1205FFE54775F091
:1002C7000A84ADF07F011205FFAF470547EF24F819
:1002D700FFC2001205D0E547C394104003E4F54779
:0102E70022F4
:10018C000205F4E493A3F8E493A34003F68001F290
:10019C0008DFF48029E493A3F85407240CC8C33374
:1001AC00C4540F4420C8834004F456800146F6DF43
:1001BC00E4800B0102040810204080900346E47E8A
:1001CC00019360BCA3FF543F30E509541FFEE49338
:1001DC00A360010ECF54C025E060A840B8E493A3FF
:1001EC00FAE493A3F8E493A3C8C582C8CAC583CA2A
:1001FC00F0A3C8C582C8CAC583CADFE9DEE780BEE2
:01039C000060
:10043800EB9FF5F0EA9E42F0E99D42F0EC6480C83B
:0604480064809845F022DB
:10044E00D083D082F8E4937012740193700DA3A33D
:10045E0093F8740193F5828883E473740293686051
:06046E00EFA3A3A380DF51
:00000001FF
