:03000000020A29C8
:0C0A2900787FE4F6D8FD75812E020A707B
:070BC300012C00022D0001CE
:03001B00020AB521
:100AB500C0E0C0F0C083C082C0D075D000C000C007
:0D0AC50001C002C003C004C005C006C00788
:100AD200E52C75F00A84E5F07003120C05E52C751F
:100AE200F00384E5F07003120B28E52C20E00312DA
:100AF2000B78E52C75F00A84E5F070031206AB055D
:0B0B02002CE52CC394C84003752C00A8
:100B0D00D007D006D005D004D003D002D001D0003C
:0B0B1D00D0D0D082D083D0F0D0E032E6
:10049C00120CDF7D05E4FF120D377D1A7F01120D62
:1004AC00377D0C7F02120D377D107F03120D377DC7
:1004BC00027F04120D377D0C7F05120D377D197FDD
:1004CC0006120D377D197F07120D37D203E4FF1288
:1004DC000D19120CFDD2037F01120D19120CFDD255
:1004EC00037F02120D19120CFDD2037F03120D199A
:1004FC00120CFDD2037F04120D19120CFDD2037FD6
:10050C0005120D19120CFDD2037F06120D19120CD7
:10051C00FDD2037F07120D19120CFD120C8E7D19E2
:10052C00E4FF120D377D0E7F01120D377D1D7F020A
:10053C00120D377D107F03120D377D107F04120DC5
:10054C00377D217F05120D377D017F06120D377D1A
:0F055C00097F07120D37120CEE120C8E120CBC19
:10056B00120D3E8F21AE2DAF2E7C007D0A12099805
:10057B00AD07E4FF120D37AE2DAF2E7C007D0A12B6
:10058B000998ED2420FD7F01120D37E52D60030244
:10059B00061FE52E24FE602E146052240270757D1A
:1005AB00107F02120D377D107F03120D377D107FE8
:1005BB0004120D377D157F05120D377D0E7F061248
:1005CB000D377D0D80737D107F02120D377D107FEF
:1005DB0003120D377D107F04120D377D057F051239
:1005EB000D377D0E7F06120D377D1B804C7D107FE6
:1005FB0002120D377D107F03120D377D107F041211
:10060B000D377D147F05120D377D0E7F06120D37CA
:10061B007D1F80257D107F02120D377D107F031209
:10062B000D377D167F04120D377D177F05120D37A1
:10063B007D167F06120D377D0E7F07120D37E521D4
:10064B00B40613052EE52E7002052D6464452D703E
:10065B0005F52D752E01E521B40713E52E152E702A
:10066B0002152DE52E452D7005F52D752E63E52113
:10067B006405600302056BE52D600302056BE52E37
:10068B0024FE60101460132402600302056B120237
:10069B008302056B1208D602056B1207FB02056B72
:040D440053A01F2277
:100CCE00530707EFC43354E0FFE5A0541F4FF5A0C0
:010CDE0022F3
:0E0BCA00021E0000C101C100011C00011D003F
:0F0CDF00120C6C120D44120D0C120CA702000324
:100C6C00E4F594F593F592F591F596F595F5B2F5C5
:100C7C00B1F5B4F5B3F5CAF5C9F5CCF5CBF5E2F59C
:020C8C00E12263
:10000300538EBF53890F758B18758DFCC28FD28E9B
:05001300D2ABD2AF22C8
:0E0CEE0000007F2E7E997DF5DDFEDEFCDFFA34
:010CFC0022D5
:0E0CFD0000007F057E907D47DDFEDEFCDFFA05
:010D0B0022C5
:100C0500051FE51F7002051EAE1EFFE4FCFD7B609F
:100C15007AEAF9F8D31209ED5005E4F51EF51F053A
:100C25001CE51CC3940A4005E4F51CD201051DE52D
:0B0C35001DC394644005E4F51DD200CF
:010C40002291
:090D2500300104C201D322C322F3
:090D2E00300004C200D322C322EC
:100BD800080B0000000000000000010800010900E7
:030BE800010A00FF
:0D0D0C007F04120CCE7580FFE4FF020CCEB8
:0C0D1900A203E433FE740B2FF8A60622A0
:100B2800740B2508F8E66013AF080508A8077401D8
:100B3800088002C333D8FC420A8012AF080508A80F
:100B4800077401088002C333D8FCF4520AE508C3CD
:100B580094084003E4F508E509650A60127F041269
:0F0B68000CCEE50AF4F580E4FF120CCE850A09E5
:010B7700225B
:100CBC00E4F50BF50CF50DF50EF50FF510F511F53A
:020CCC001222F2
:100C41003F065B4F666D7D077F6F777C395E7971FB
:100C51000040761E7038375C733E783D6750376EC2
:0B0C6100BF86DBCFE6EDFD87FFEF460E
:0D0BEB00081410101010101010100113004D
:100CA7007F06120CCEE4F5807F07120CCE7580FF0D
:050CB700E4FF020CCE79
:070D370074142FF8A6052239
:100B78007580FF7F07120CCEE4FF120CCEAF13A8CE
:100B8800077401088002C333D8FCF5807F06120C75
:100B9800CEE4FF120CCEAF13051374142FF8E690B1
:100BA8000C4193F4F5807F07120CCEE4FF120CCEB3
:0A0BB800E513C394084003E4F513AD
:010BC2002210
:100C8E0075141075151075161075171075181075DA
:090C9E001910751A10751B1022C3
:0C0BF800012BC8012800012900012A007F
:1006AB007526FF7527C975B00FC2C2C2C4A2C2920C
:1006BB00B6A2C492B7E5B0540FF526E52814602214
:1006CB001470030207A21470030207D624036003FD
:1006DB000207F7E526640F70030207F7752801027E
:1006EB0007F7E526B40F06E4F5280207F7E52644DD
:1006FB00F0F5B0D2C2D2C4A2C292B6A2C492B78550
:10070B00B026E526120A03074677074B7B07507D79
:10071B0007557E075AB7075FBB0764BD0769BE075E
:10072B006ED70773DB0778DD077DDE0782E7078768
:10073B00EB078CED0791EE00000796752A048052AB
:10074B00752A05804D752A068048752A07804375E2
:10075B002A08803E752A098039752A0A8034752A41
:10076B000B802F752A0C802A752A0D8025752A0E71
:10077B008020752A0F801B752A108016752A118010
:10078B0011752A12800C752A138007E4F528752A37
:10079B00C922752802805575B00FC2C2C2C4A2C24D
:1007AB0092B6A2C492B7E5B0540FF526640F601150
:1007BB000529E529D394464033E4F52975280380B0
:1007CB002BE4F529F528852A27802175B00FC2C2A5
:1007DB00C2C4A2C292B6A2C492B7E5B0540FF5261A
:0F07EB00B40F09E4F528E52A2464F52785272BA8
:0107FA0022DC
:050D3E00AF2B752BC96D
:010D4300228D
:10028300752201D202E4F524F525120C8E120D3EDF
:100293008F23E523B406100522E522B40A03752251
:1002A30001120C8E120CBCE523B4070CD522037586
:1002B3002209120C8E120CBCE523B40406120C8E18
:1002C300020CBCAD227F07120D37E52224FE6062CB
:1002D30014700302037E1470030203CE147003022E
:1002E3000405147003020429240560030204657DD8
:1002F30010E4FF120D377D107F01120D37D203E496
:10030300FF120D19D2037F01120D19D2037F0212BE
:100313000D19D2037F03120D19D2037F04120D1995
:10032300D2037F05120D19D2037F06120D19D203D2
:1003330080417D10E4FF120D377D107F01120D37D0
:10034300D203E4FF120D19C2037F01120D19D20368
:100353007F02120D19C2037F03120D19D2037F040A
:10036300120D19C2037F05120D19D2037F06120D58
:1003730019C2037F07120D19020290120D2E4003BA
:1003830002029030023DD203E4FF120D19D2037F23
:1003930001120D19D2037F02120D19D2037F03122A
:1003A3000D19D2037F04120D19D2037F05120D1903
:1003B300D2037F06120D19D2037F07120D19C20251
:1003C300020290120CBCD202020290120D254003CD
:1003D300020290E524C394085008AF240524D203F5
:1003E3008011E524C39410500DAF240524EF24F8A5
:1003F300FFC203120D19E524C394105003020290A7
:10040300805A120D254003020290120CBCAF250541
:1004130025D203120D19E525C39408500302029057
:10042300E4F525020290120D254003020290E52413
:10043300C394085008AF240524D2038012E524C3D3
:100443009410500EAF240524C3740F9FFFC20312F0
:100453000D19E524C394105003020290E4F524021D
:100463000290120CBC7D16E4FF120D37E4FD7F01F0
:10047300120D377D107F02120D377D107F03120D91
:10048300377D107F04120D377D107F05120D377DE8
:09049300107F06120D37020290E1
:1008D600752201E4F524120C8E120CBC120D3E8F0B
:1008E60023E523B406100522E522B40A0375220186
:1008F600120C8E120CBCE523B4070CD5220375220C
:1009060009120C8E120CBCE523B40406120C8E02DE
:100916000CBCE5222420FDE4FF120D37E5221470FD
:100926003A120D2E50B6E52475F00A84FD7F0412A6
:100936000D37E52475F00A84ADF07F05120D377D7D
:10094600117F06120D37AD2405247F07120D37E5FA
:1009560024C3942B4086E4F5248081120CBC7D16BA
:100966007F02120D37E4FD7F03120D377D107F01E4
:10097600120D377D107F07120D377D107F04120D83
:10098600377D107F05120D377D107F06120D370259
:0209960008E275
:1007FB00752201D202120C8E120CBC120D3E8F23ED
:10080B00E523B406100522E522B40A037522011272
:10081B000C8E120CBCE523B4070CD52203752209F0
:10082B00120C8E120CBCE523B40406120C8E020CB7
:10083B00BCE5222420FDE4FF120D37E5221470489D
:10084B00120D2E50773002207D0C7F04120D37E4F1
:10085B00FD7F05120D377D0D7F06120D377D0E7F47
:10086B0007120D37C20280547D1A7F04120D377D9B
:10087B000E7F05120D377D057F06120D377D1A7F12
:10088B0007120D37D2028034120CBC7D167F021278
:10089B000D37E4FD7F03120D377D107F01120D37ED
:1008AB007D107F07120D377D107F04120D377D10E1
:1008BB007F05120D377D107F06120D37E52364057A
:0B08CB00600302080612001E0208066F
:10001E00120C8E120CBC7D15E4FF120D377D177F6E
:10002E0001120D377D177F02120D377D1B7F0312D4
:10003E000D377D187F04120D377D1D7F05120D378C
:10004E007D0E7F06120D377D057F07120D37120CC0
:10005E00EE120CEE7D05E4FF120D377D047F0112CA
:10006E000D377D107F02120D377D107F03120D3775
:10007E007D0B7F04120D377D0A7F05120D377D0C27
:10008E007F06120D377D147F07120D37120CEE12FC
:10009E000CEE120C8E7D107F05120D37E4FD7F06DF
:0A00AE00120D37E4FD7F07120D3735
:1000B800120D3E8F24E52464C97003020279E524F9
:1000C800120A03012F04013305013706013B07011A
:1000D8003F0801430901470A014B0B01500C015528
:1000E8000D015A0E015F0F016410016911016E12B2
:1000F80001731301786801846901906A019C6B019E
:10010800A86C01B46D01C06E01D36F01E67001F8EF
:1001180071020A72021C73022E7402407502527632
:10012800026477000002797D1080477D10804F7D42
:100138001080577D10805F7D1080677D10806F7DF7
:100148001080777D100201D57D100201E87D100234
:1001580001FA7D1002020C7D1002021E7D100202BF
:10016800307D100202427D100202547D10020266A8
:100178007D157F05120D37E4FD0202137D157F05FD
:10018800120D37E4FD0202257D157F05120D37E4B7
:10019800FD0202377D157F05120D37E4FD02024985
:1001A8007D157F05120D37E4FD02025B7D157F0585
:1001B800120D37E4FD02026D7D157F05120D377DA6
:1001C800017F06120D37E4FD0202747D157F0512CA
:1001D8000D377D017F06120D377D010202747D15F2
:1001E8007F05120D377D017F06120D377D02807C59
:1001F8007D157F05120D377D017F06120D377D03B2
:10020800806A7D157F05120D377D017F06120D3737
:100218007D0480587D157F05120D377D017F0612FC
:100228000D377D0580467D157F05120D377D017FD1
:1002380006120D377D0680347D157F05120D377D3A
:10024800017F06120D377D0780227D157F05120D6F
:10025800377D017F06120D377D0880107D157F05DB
:10026800120D377D017F06120D377D097F07120DAC
:0A02780037E524646860030200B853
:010282002259
:100A350002049CE493A3F8E493A34003F68001F237
:100A450008DFF48029E493A3F85407240CC8C333C2
:100A5500C4540F4420C8834004F456800146F6DF91
:100A6500E4800B0102040810204080900BC3E47E53
:100A7500019360BCA3FF543F30E509541FFEE49386
:100A8500A360010ECF54C025E060A840B8E493A34D
:100A9500FAE493A3F8E493A3C8C582C8CAC583CA78
:100AA500F0A3C8C582C8CAC583CADFE9DEE780BE30
:010C040000EF
:10099800BC000BBE0029EF8DF084FFADF022E4CC43
:1009A800F875F008EF2FFFEE33FEEC33FCEE9DEC0C
:1009B800984005FCEE9DFE0FD5F0E9E4CEFD22ED52
:1009C800F8F5F0EE8420D21CFEADF075F008EF2F9C
:1009D800FFED33FD4007985006D5F0F222C398FD8D
:0509E8000FD5F0EA222A
:1009ED00EB9FF5F0EA9E42F0E99D42F0EC6480C881
:0609FD0064809845F02221
:100A0300D083D082F8E4937012740193700DA3A382
:100A130093F8740193F5828883E473740293686096
:060A2300EFA3A3A380DF96
:00000001FF
