:0300000002001EDD
:0C001E00787FE4F6D8FD758120020065B3
:0302620001110087
:03001B00020123BC
:10012300C0E0C0F0C083C082C0D075D000C000C0A2
:0D01330001C002C003C004C005C006C00723
:10014000E51175F00384E5F060031202B2E51130A9
:10015000E00312017C0511E511C394C84003751139
:01016000009E
:10016100D007D006D005D004D003D002D001D000F2
:0B017100D0D0D082D083D0F0D0E0329C
:1000AA001202877D05E4FF1202BD7D1A7F0112024A
:1000BA00BD7D0C7F021202BD7D107F031202BD7D41
:1000CA00027F041202BD7D0C7F051202BD7D197FDD
:1000DA00061202BD7D197F071202BD120296120294
:1000EA0034120296E4FD7F031202BDD2007F011290
:1000FA000214120296D2007F051202147D017F03B8
:10010A001202BD120296C2007F0512021412029652
:09011A00C2007F0112021480C82A
:0402C40053A01F2202
:10027600530707EFC43354E0FFE5A0541F4FF5A022
:010286002255
:0F0287001201F21202C41202A512024D0200036C
:1001F200E4F594F593F592F591F596F595F5B2F54A
:10020200B1F5B4F5B3F5CAF5C9F5CCF5CBF5E2F520
:02021200E122E7
:10000300538EBF53890F758B18758DFCC28FD28E9B
:05001300D2ABD2AF22C8
:0E02960000007F2E7E997DF5DDFEDEFCDFFA96
:0102A4002237
:0302650001120083
:0D02A5007F041202767580FFE4FF020276EE
:1002140030000EA8077401088002C333D8FC4212D0
:1002240022A8077401088002C333D8FCF4521222B6
:0B02B2007F04120276E512F4F58022B2
:1001C7003F065B4F666D7D077F6F777C395E797180
:1001D7000040761E7038375C733E783D6750376E47
:0B01E700BF86DBCFE6EDFD87FFEF4693
:0D02680008091010101010101010010800EF
:10024D007F06120276E4F5807F071202767580FF35
:05025D00E4FF0202763F
:0702BD0074092FF8A60522C9
:10017C007580FF7F07120276E4FF120276AF08A8A3
:10018C00077401088002C333D8FCF5807F06120285
:10019C0076E4FF120276AF08050874092FF8E69092
:1001AC0001C793F4F5807F07120276E4FF12027602
:0A01BC00E508C394084003E4F508C9
:0101C6002216
:10023400750910750A10750B10750C10750D107575
:090244000E10750F107510102248
:10002A000200AAE493A3F8E493A34003F68001F242
:10003A0008DFF48029E493A3F85407240CC8C333D7
:10004A00C4540F4420C8834004F456800146F6DFA6
:10005A00E4800B0102040810204080900262E47ED2
:10006A00019360BCA3FF543F30E509541FFEE4939B
:10007A00A360010ECF54C025E060A840B8E493A362
:10008A00FAE493A3F8E493A3C8C582C8CAC583CA8D
:10009A00F0A3C8C582C8CAC583CADFE9DEE780BE45
:010275000088
:00000001FF
