:030000000205A94D
:0C05A900787FE4F6D8FD75812D0205F086
:07074300012B00022C000154
:03001B00020635A5
:10063500C0E0C0F0C083C082C0D075D000C000C08B
:0D06450001C002C003C004C005C006C0070C
:10065200E52B75F00A84E5F07003120785E52B752A
:10066200F00384E5F070031206A8E52B20E00312E4
:1006720006F8E52B75F00A84E5F070031203C8054D
:0B0682002BE52BC394C84003752B0030
:10068D00D007D006D005D004D003D002D001D000C1
:0B069D00D0D0D082D083D0F0D0E0326B
:10001E0012085F7D05E4FF1208B77D1A7F011208F2
:10002E00B77D0C7F021208B77D107F031208B77DD3
:10003E00027F041208B77D0C7F051208B77D197F69
:10004E00061208B77D197F071208B7D203E4FF1214
:10005E00089912087DD2037F0112089912087DD2E9
:10006E00037F0212089912087DD2037F03120899AA
:10007E0012087DD2037F0412089912087DD2037FE5
:10008E000512089912087DD2037F061208991208EC
:10009E007DD2037F0712089912087D12080E7D1972
:1000AE00E4FF1208B77D0E7F011208B77D1D7F0297
:1000BE001208B77D107F031208B77D107F04120857
:1000CE00B77D217F051208B77D017F061208B77D27
:0F00DE00097F071208B712086E12080E12083CAD
:1000ED001208BE8F21AE2CAF2D7C007D0A12051893
:1000FD00AD07E4FF1208B7AE2CAF2D7C007D0A12C0
:10010D000518ED2420FD7F011208B7E52C600302D0
:10011D0001A1E52D24FE602E146052240270757D20
:10012D00107F021208B77D107F031208B77D107F74
:10013D00041208B77D157F051208B77D0E7F0612D4
:10014D0008B77D0D80737D107F021208B77D107F7B
:10015D00031208B77D107F041208B77D057F0512C5
:10016D0008B77D0E7F061208B77D1B804C7D107F72
:10017D00021208B77D107F031208B77D107F04129D
:10018D0008B77D147F051208B77D0E7F061208B7DC
:10019D007D1F80257D107F021208B77D107F031211
:1001AD0008B77D167F041208B77D177F051208B7B3
:1001BD007D167F061208B77D0E7F071208B7E52161
:1001CD00B40613052DE52D7002052C6464452C70C5
:1001DD0005F52C752D01E521B40713E52D152D70B1
:1001ED0002152CE52D452C7005F52C752D63E5219B
:1001FD00640560030200EDE52C60030200EDE52DC2
:0C020D001460030200ED1202190200ED63
:0408C40053A01F22FC
:10084E00530707EFC43354E0FFE5A0541F4FF5A044
:01085E002277
:0E074A00021E0000C101C100011C00011D00C3
:0F085F001207EC1208C412088C120827020003BB
:1007EC00E4F594F593F592F591F596F595F5B2F54A
:1007FC00B1F5B4F5B3F5CAF5C9F5CCF5CBF5E2F521
:02080C00E122E7
:10000300538EBF53890F758B18758DFCC28FD28E9B
:05001300D2ABD2AF22C8
:0E086E0000007F2E7E997DF5DDFEDEFCDFFAB8
:01087C002259
:0E087D0000007F057E907D47DDFEDEFCDFFA89
:01088B00224A
:10078500051FE51F7002051EAE1EFFE4FCFD7B6024
:100795007AEAF9F8D312056D5005E4F51EF51F0543
:1007A5001CE51CC3940A4005E4F51CD201051DE5B2
:0B07B5001DC394644005E4F51DD20054
:0107C0002216
:0908A500300104C201D322C32278
:0908AE00300004C200D322C32271
:10075800080B00000000000000000108000109006B
:03076800010A0083
:0D088C007F0412084E7580FFE4FF02084E45
:0C089900A203E433FE740B2FF8A6062225
:1006A800740B2508F8E66013AF080508A80774015D
:1006B800088002C333D8FC420A8012AF080508A894
:1006C800077401088002C333D8FCF4520AE508C352
:1006D80094084003E4F508E509650A60127F0412EE
:0F06E800084EE50AF4F580E4FF12084E850A0972
:0106F70022E0
:10083C00E4F50BF50CF50DF50EF50FF510F511F5BE
:02084C00122276
:1007C1003F065B4F666D7D077F6F777C395E797180
:1007D1000040761E7038375C733E783D6750376E47
:0B07E100BF86DBCFE6EDFD87FFEF4693
:0D076B0008141010101010101010011300D1
:100827007F0612084EE4F5807F0712084E7580FF99
:05083700E4FF02084E81
:0708B70074142FF8A60522BE
:1006F8007580FF7F0712084EE4FF12084EAF13A85B
:10070800077401088002C333D8FCF5807F061208FD
:100718004EE4FF12084EAF13051374142FF8E69039
:1007280007C193F4F5807F0712084EE4FF12084EC4
:0A073800E513C394084003E4F51331
:010742002294
:10080E00751410751510751610751710751810755E
:09081E001910751A10751B102247
:0C077800012AC801270001280001290007
:1003C8007525FF7526C975B00FC2C2C2C4A2C292F4
:1003D800B6A2C492B7E5B0540FF525E527146022FC
:1003E8001470030204BF1470030204F324036003AF
:1003F800020514E525640F70030205147527010230
:100408000514E525B40F06E4F527020514E525448F
:10041800F0F5B0D2C2D2C4A2C292B6A2C492B78535
:10042800B025E52512058304637704687B046D7D98
:1004380004727E0477B7047CBB0481BD0486BE04C5
:100448008BD70490DB0495DD049ADE049FE704A4AF
:10045800EB04A9ED04AEEE000004B3752904805244
:10046800752905804D7529068048752907804375CB
:100478002908803E752909803975290A803475292B
:100488000B802F75290C802A75290D802575290E5A
:10049800802075290F801B752910801675291180F9
:1004A80011752912800C7529138007E4F527752921
:1004B800C922752702805575B00FC2C2C2C4A2C234
:1004C80092B6A2C492B7E5B0540FF525640F601137
:1004D8000528E528D394464033E4F528752703809A
:1004E8002BE4F528F527852926802175B00FC2C28F
:1004F800C2C4A2C292B6A2C492B7E5B0540FF52501
:0F050800B40F09E4F527E5292464F52685262A92
:0105170022C1
:0508BE00AF2A752AC9F4
:0108C3002212
:10021900752201D202E4F52412080E1208BE8F23BA
:10022900E523B406100522E522B40A03752201125A
:10023900080E12083CE523B4070CD52203752209E0
:1002490012080E12083CE523B4040612080E02082F
:100259003CAD227F071208B7E52224FE60561470D0
:100269000302030614700302035624036003020306
:10027900917D10E4FF1208B77D107F011208B7D2F3
:1002890003E4FF120899D2037F01120899D2037F70
:1002990002120899D2037F03120899D2037F04122C
:1002A9000899D2037F05120899D2037F061208998B
:1002B900D20380417D10E4FF1208B77D107F01123F
:1002C90008B7D203E4FF120899C2037F0112089903
:1002D900D2037F02120899C2037F03120899D2033D
:1002E9007F04120899C2037F05120899D2037F0679
:1002F900120899C2037F071208990202241208AE54
:10030900400302022430023DD203E4FF120899D2CD
:10031900037F01120899D2037F02120899D2037F41
:1003290003120899D2037F04120899D2037F051298
:100339000899D2037F06120899D2037F07120899F8
:10034900C20202022412083CD2020202241208A5A7
:100359004003020224E524C394085008AF2405246D
:10036900D2038011E524C39410500DAF240524EF66
:1003790024F8FFC203120899E524C394105003021C
:100389000224E4F52402022412083C7D16E4FF123B
:1003990008B7E4FD7F011208B77D107F021208B784
:1003A9007D107F031208B77D107F041208B77D10F6
:0F03B9007F051208B77D107F061208B7020224D5
:1005B50002001EE493A3F8E493A34003F68001F23E
:1005C50008DFF48029E493A3F85407240CC8C33347
:1005D500C4540F4420C8834004F456800146F6DF16
:1005E500E4800B0102040810204080900743E47E5C
:1005F500019360BCA3FF543F30E509541FFEE4930B
:10060500A360010ECF54C025E060A840B8E493A3D1
:10061500FAE493A3F8E493A3C8C582C8CAC583CAFC
:10062500F0A3C8C582C8CAC583CADFE9DEE780BEB4
:010784000074
:10051800BC000BBE0029EF8DF084FFADF022E4CCC7
:10052800F875F008EF2FFFEE33FEEC33FCEE9DEC90
:10053800984005FCEE9DFE0FD5F0E9E4CEFD22EDD6
:10054800F8F5F0EE8420D21CFEADF075F008EF2F20
:10055800FFED33FD4007985006D5F0F222C398FD11
:050568000FD5F0EA22AE
:10056D00EB9FF5F0EA9E42F0E99D42F0EC6480C805
:06057D0064809845F022A5
:10058300D083D082F8E4937012740193700DA3A307
:1005930093F8740193F5828883E47374029368601B
:0605A300EFA3A3A380DF1B
:00000001FF
